:03000000020BA64A
:0C0BA600787FE4F6D8FD758171020BED3C
:100D2F0001080042002E01F442002B0384410030E1
:090D3F000041002D0041003100CB
:10065C00E4900000F0F521759497759E6604F09077
:10066C000000E0FFD3940E500B12125F900000E0DC
:10067C0004F080EBE4FF12125F12107712115C127F
:10068C00129F75261EE4F527121427E4F508E527BA
:10069C0060FCD294900030E004F0E0547FFF9000B6
:1006AC002AE02FFFE52164015401FE75F01FA424FC
:1006BC0046F8A607EE75F01FA42428F9E4FAFB7D92
:1006CC001F121490C2947525019000017414F0D27D
:1006DC00E8900001E0FF14F0EF70F6C2E8E5257039
:1006EC00FCE5087003020776E4F508FB7A0079094B
:1006FC00F5188A19891A12006664017030AB18E576
:10070C001A2401F9E43519FA781B7C007D007E006F
:10071C007F06120205E51D7009C2ADAF1B12125FF8
:10072C00800BD2AD7B007A00791B12052FAB18AA77
:10073C0019A91A120066B40231E92407F9E43AFA4D
:10074C0078667C007D007E007F0812020590002EEA
:10075C00E568F0A3E569F090002BE566F0A3E5678A
:10076C00F07B007A0079661212BEE4F52702069A35
:030063000209701F
:10097000C0E0C0F0C083C082C085C084C0925392E2
:10098000FEC0D075D000C000C001C002C003C004CA
:10099000C005C006C007AB22AA23A924E5D41200D3
:1009A000AC74012524F524E43523F523AB22FAA900
:1009B00024E5D51200AC74012524F524E43523F593
:1009C00023AFD4EFFEADD57C00E42DFFEC3EFEC39B
:1009D00090002FE09F90002EE09E90002D50057417
:1009E00001F08006E4F0900031F090002DE06020EE
:1009F000900031E0701AC390002CE09F90002BE033
:100A00009E500D1211B190002DE4F090003104F0D1
:100A100015261526E526701C75261E532101632117
:100A200001E52175F01FA42428F9E4F522F52389B6
:100A300024752701D007D006D005D004D003D002FA
:100A4000D001D000D0D0D092D084D085D082D083B5
:050A5000D0F0D0E032FF
:10115C00E4FF12133D7F0112140F7F0112141B7F49
:10116C000112137C7F011213A87F0312138B7F01D2
:0B117C001213B67F0312134DD2BC22E9
:10107700D2EAD2B97F011210D37F011210177F0174
:10108700120FE57F0112139A7F7D1213087DFA7CF8
:0E109700007F1412121DE4FF1210A5D2AF222A
:03004B00020CB5EF
:100CB500C0E0C0F0C083C082C085C084C09253929A
:100CC500FEC0D075D000C000C001C002C003C00482
:100CD500C005C006C0071213EBEF24F0602024F016
:100CE500601A24C07023750801121468EF700AFB9E
:100CF5007A00790912151380F07525008008121401
:100D0500C2A295B39295752500D007D006D005D01F
:100D150004D003D002D001D000D0D0D092D084D05E
:0A0D250085D082D083D0F0D0E032F8
:0B1433007B01E4FDFF120DF67F00229C
:10000E00AD07AC06EC5403FBED90005CF0AF0312B1
:0D001E0014D690005CE0FF1214D67F002283
:100D480042001B000042002400004100280042002D
:100D580022019041002705026E0000017100410048
:100D680021084100260A4100290A41001E0A4100C3
:100D78001F0A4100190341001A03017000410020B5
:090D88000041002A0041001D0099
:1012BE009000041200D4FF900022E5F0F0A3EFF0AE
:0B12CE0090000612007F900027F02225
:1011B100D3E56F9400E56E94004008D5710B1214CD
:1011C100EA8006900027E0F571900022E0F56EA319
:0411D100E0F56F22B4
:0914EA00900027E0F5710211D514
:1011D50090002A7480F0E4900020F090001EE0A3B7
:1011E500F0900026E0900029F0900019E0A3F0D2DD
:0411F500C8D2AD228D
:0A145400E490002AF0C2C8C2AD22E5
:10052F00900002EBF0A3EAF0A3E9F0A31201180088
:10053F00000000900002E0FBA3E0FAA3E0F99000B6
:10054F000212007FFBE4FAF9F87F407E427D0FFC38
:10055F0012022B90000912010CE47F02FEFDFC90A9
:10056F000009E0F8A3E0F9A3E0FAA3E0FB1202EA26
:10057F00E47B03FAF9F812022B90000512010C909C
:10058F000002E0FBA3E0FAA3E0F990000112007F64
:10059F00FFE4FCFDFE900005E0F8A3E0F9A3E0FA0C
:1005AF00A3E0FB1202EAE47B64FAF9F812022B9043
:1005BF00001BEEF0A3EFF0900005A3A3E0FEA3E075
:1005CF00FF90001BE0FCA3E0FDC3EF9DFFEE9C90AE
:1005DF000024F0A3EFF0EDAE047803CEC313CE13D7
:1005EF00D8F9FFC374109FFFE49EFEEF6402FF90E3
:1005FF00001BEEF0A3EFF0900024E0FEA3E07803E1
:10060F00CEC313CE13D8F9FFC374109FFFE49EFE21
:10061F00EF6402FF900024EEF0A3EFF0900002E0F1
:10062F00FBA3E0FAA3E0F990000412007F90001EF4
:10063F00F090000312007F900026F090000512004A
:0D064F007F900019F0120066F5700211D5C1
:10129F0075CAF075CBF075C102D2CFD2CCD2C8D2FD
:0F12AF00AD758901758C7F758AFFD28CD2A9220B
:03000B000212D905
:1012D900C0E0758C7F758AFFE56F456E6008E56F24
:0912E900156F7002156ED0E032A1
:03002B0002088444
:10088400C0E0C0F0C083C082C085C084C0925392CF
:10089400FEC0D075D000C000C001C002C003C004B7
:1008A400C005C006C007900021E014F0E060030218
:1008B400094D900028E06019900024E0FEA3E0F5C3
:1008C400CAEEF5CB900020E07072AF7012125F8018
:1008D4006B90001BE0FEA3E0F5CAEEF5CBE4FF123B
:1008E400125F900020E0702F900029E014F0E07077
:1008F4004B900026E0900029F090001EE0600890E4
:1009040000207401F08035900019E0FF602EA3E010
:1009140014F0E07027802090001FE014F0E0701CB9
:1009240090001EE0A3F0A3E4F0900019E0FF600C37
:10093400A3E014F0E07005EFF01214549000217459
:1009440008F0900028E06401F0C2C6D007D006D0B9
:1009540005D004D003D002D001D000D0D0D092D0A2
:0C09640084D085D082D083D0F0D0E03267
:10125F00EFD3940E40027F0EEF25E0FFC2937E0185
:10126F00EEC39F500A0000A293B392930E80F12217
:1010A500900002EFF0E4FF120032900003EFF090A1
:1010B5000002E0B40107A3E04401F08007900003BB
:0E10C500E054FEF0900003E0FDE4FF02127F15
:1010D300900002EFF0E4FF120032900003EFF09073
:1010E3000002E0B40107A3E04402F080079000038C
:0E10F300E054FDF0900003E0FDE4FF02127FE8
:100E980090004EEFF0E4FF12003290004FEFF09018
:100EA800004EE014601014601A2402702190004F64
:100EB800E054F7F0801890004FE04408F0E054FB4D
:100EC800F0800B90004FE04408F0E04404F09000FC
:080ED8004FE0FDE4FF02127F70
:100C3200900048EFF0A3EDF0E4FF12003290004A7A
:100C4200EFF0900048E024FB602414603F2402701F
:100C520058900049E060047F0080027F01EF540158
:100C6200C454F0FF90004AE054EF4FF0803B9000F4
:100C720049E060047F0080027F01EF5401C43354D5
:100C8200E0FF90004AE054DF4FF0801D900049E001
:100C920060047F0080027F01EF5401C4333354C0EB
:100CA200FF90004AE054BF4FF090004AE0FDE4FF9D
:030CB20002127FAC
:0C13EB007D707F0712127FEF5470FF220C
:1011F9007D707F0712127FEF547090005DF0E0FF61
:10120900C0077F07120032EF540FFED0E04EFF9067
:04121900005DF02262
:10131B007401A807088002C333D8FCFD7F070212B3
:01132B007F42
:080003001214CCEF5470FF222F
:100B140090003CEFF0A3EDF07F0212003290003E13
:100B2400EFF07F0112003290003FEFF090003CE0C4
:100B3400FF24FA50062407603C80537401A8070878
:100B44008002C333D8FCFD90003EE04DF090003DA0
:100B5400E0600890003FE04DF0803390003CE0FFFF
:100B64007401A807088002C333D8FCF4FF90003F47
:100B7400E05FF0801990003E743FF090003DE0602B
:100B84000890003F743FF08005E490003FF090002F
:100B94003EE0FD7F0212127F90003FE0FD7F0102E4
:020BA400127FBE
:100D9A0090004BEFF07F0212003290004CEFF07F90
:100DAA000112003290004DEFF090004BE0FF24FA60
:100DBA0050062407601B80207401A807088002C31C
:100DCA0033D8FCF4FD90004CE05DF0A3E05DF080C8
:100DDA0007E490004CF0A3F090004CE0FD7F021273
:0C0DEA00127F90004DE0FD7F0102127F9F
:100E4800900041EBF0A3EAF0A3E9F0900040EFF046
:100E580014600A24FB502160042406703212145EC8
:100E6800900006EFF0900040E0242AFFA3E0FBA3E7
:100E7800E0FAA3E0F902077C900040E0240AFFA30F
:100E8800E0FBA3E0FAA3E0F9120066FD12127F224C
:100EE000900045EBF0A3EAF0A3E9F0900044EFF0A6
:100EF00014600824FB600424067011900044E0FF95
:100F0000A3E0FBA3E0FAA3E0F9020338900044E079
:100F1000240AFF120032900045E0FBA3E0FAA3E0B0
:080F2000F9EF1200AC7F012281
:10121D00AB07EC540FC454F0FF900002E0540F4F95
:10122D00F0EB540FFFE054F04FF0E0FD7F0402129D
:01123D007F31
:10004E00EF24FE5403FF90005EE054FC4FF0E0FD01
:05005E007F0302127F88
:0A145E007F03120032EF2402FF2288
:0714F300EF2411FF02127F3C
:100A5500900032EFF07F02120032900033EFF07F0A
:100A650001120032900034EFF0900032E014602063
:100A75001460311460421460551460642405707A62
:100A8500900033E05401900035F0900034E080622E
:100A9500900033E0C3135401900035F0900034E02A
:100AA500C313804E900033E013135401900035F0CA
:100AB500900034E01313803A900033E0131313547D
:100AC50001900035F0900034E0131313802490005A
:100AD50033E0C45401900035F0900034E0C4801236
:100AE500900033E0C4135401900035F0900034E0D9
:100AF500C4135401900036F08007E4900035F0A34C
:0F0B0500F0900036E025E0FF900035E02FFF2252
:061501007F0812003222F7
:0D13C4007F08120032EF54F0C4540FFF22D6
:100F2800EF14601414601514601614601714601818
:100F3800240570207F1180127F12800E7F13800A93
:100F48007F1480067F1580027F1612003290005FA2
:0F0F5800EFF08005E490005FF090005FE0FF2273
:10130800EF547FFF900002E054804FF0E0FD7F052E
:0313180002127F3F
:10123E0090005012002E900051EFF0900050E054AC
:10124E000325E0FFA3E054F94FF0E0FD7F06021204
:01125E007F10
:100F670090005212002E900053EFF0900052E06074
:100F77000C24FE7015900053E04420800690005327
:100F8700E054DFF0E054F7F0800B900053E054DFBB
:0F0F9700F0E04408F0900053E0FD7F0602127F67
:0A1468007F17120032EF5401FF223B
:0C13F7007F17120032EFC3135401FF22D5
:0B143E007F17120032EFC45401FF22A0
:0C1403007F17120032EFC4135401FF22C7
:0D13D1007F17120032EF5430C4540FFF227A
:0A1472007F17120032EF5403FF222F
:061507007F1712003222E2
:0A147C007F08120032EF540FFF2228
:0A1486007F09120032EF5401FF222B
:01004A002293
:0E139A00EF543F900002F0E0FD7F1C02127F36
:100FE500900002EFF07F1D120032900003EFF090A9
:100FF5000002E060047F0180027F00EF540125E0DC
:1010050025E0FF900003E054FB4FF0E0FD7F1D025B
:02101500127F48
:10101700900002EFF07F1D120032900003EFF09076
:101027000002E060047F0180027F00EF540125E0A9
:10103700FF900003E054FD4FF0E0FD7F1D02127F9B
:10110100900054EFF07F1D120032900055EFF090E7
:101111000054E060047F0180027F00EF5401FF90E2
:0E1121000055E054FE4FF0E0FD7F1D02127FEE
:0A149000900006EDF07FA002077C3B
:0A149A00900006EDF07FB002077C21
:0F136D00EF44A8FF90003BE0900006F002077CE1
:06150D007F601200322293
:061513007F0812033822DC
:0A14A4001214CCEF540EC313FF2204
:0A14AE00C2E97FE31214E0D2E92244
:0D13DE00121507EF5440C413135403FF22EF
:0A14B800C2E97FE21214E0D2E9223B
:0A14C200C2E97FE11214E0D2E92232
:0A14CC00C2E97FFF1214E0D2E9220A
:10112F0090005612002E900057EFF0900056E0609E
:10113F00047F0180027F00EF5401C454F0FF900040
:0D114F0057E054EF4FF0E0FD7F0602127FE5
:1010470090005812002E900059EFF0900058E06081
:10105700047F0180027F00EF5401C433333354808F
:10106700FF900059E0547F4FF0E0FD7F0602127FAA
:04002E00EFF07F066A
:10003200C2E98FE7E5E630E1FBAFE7E4F5E7E5E6A5
:0800420030E1FBAFE7D2E92237
:10127F00C2E9EF2420F5E7E5E630E1FBAFE7AE0585
:10128F008EE7E5E630E1FB90000DE5E7F0D2E922CD
:1003380090000EEBF0A3EAF0A3E9F090000DEFF0C7
:100348009000157401F090000EE0900013F0EF1487
:10035800600C24FB600824FE601924087035121410
:100368005E900011EFF0A3F0C2E990000DE0240ABE
:10037800FF801B1214A490000DEFF0C394075013D4
:1003880012150D900011EFF0A3F0C2E97F6112146D
:10039800E08009E4900012F0900011F0900013E062
:1003A800FF704B90000EA3A3E0900016F0E4F5E771
:1003B800900015E07011900014E0FE900016E0F82F
:1003C800A606E004F08005E4900015F0E5E630E1CB
:1003D800FB900014E5E7F0900011E014F070CE9067
:1003E8000014E0FE900016E0F8A606020520EF646F
:1003F80001706990000EA3E0FAA3E0FF900016EAEE
:10040800F0A3EFF0E4F5E7900015E07022900014F7
:10041800E0FF900016E0FCA3E0F5828C83EFF090FB
:100428000017E004F0700D900016E004F08005E479
:10043800900015F0E5E630E1FB900014E5E7F09058
:100448000011E014F070BD900014E0FF900016E079
:10045800FCA3E0F5828C83EFF0020520900013E006
:1004680064FE704A90000EA3A3E0900016F0E4F535
:10047800E7900015E07011900014E0FF900016E07E
:10048800F8EFF2E004F08005E4900015F0E5E630BE
:10049800E1FB900014E5E7F0900011E014F070CE55
:1004A800900014E0FF900016E0F8EFF2806A9000E8
:1004B8000EE0F9A3E0FAA3E0900016C9F0A3EAF071
:1004C800A3E9F0E4F5E7900015E07020900014E04F
:1004D800FF900016E0FBA3E0FAA3E0F9EF1200ACEE
:1004E800900017E475F0011200BE8005E490001535
:1004F800F0E5E630E1FB900014E5E7F0900011E04C
:1005080014F070BF900014E0FF900016E0FBA3E029
:10051800FAA3E0F9EF1200ACD2E990000DE0FE90EA
:070528000012E0FDEDFF22CF
:10077C00900003EBF0A3EAF0A3E9F0900003E0FD96
:10078C00C2E98FE7ED7029A3A3E0900008F0900078
:10079C0008E0F8E6FEE004F0E5E630E1FB90000747
:1007AC00E5E7F08EE7900006E014F070E1020876C1
:1007BC00ED64017042900003A3E0FBA3E0900008FD
:1007CC00CBF0A3EBF0900008E0FEA3E0F5828E8363
:1007DC00E0FE900009E004F07006900008E004F0E0
:1007EC00E5E630E1FB900007E5E7F08EE7900006C8
:1007FC00E014F070D08073ED64FE702B900003A3B6
:10080C00A3E0900008F0900008E0F8E2FEE004F0AD
:10081C00E5E630E1FB900007E5E7F08EE790000697
:10082C00E014F070E18043900003E0F9A3E0FAA338
:10083C00E0900008C9F0A3EAF0A3E9F0900008E00A
:10084C00FBA3E0FAA3E0F9120066FE900009E47540
:10085C00F0011200BEE5E630E1FB900007E5E7F0A1
:10086C008EE7900006E014F070D2E5E630E1FB90E4
:08087C000007E5E7F0D2E922D4
:10133D00EF25E025E0543CFFE5D354C34FF5D32210
:0C140F00EF5403FFE5D354FC4FF5D3224B
:0F137C00EFC4333354C0FFE5D2543F4FF5D222B4
:0E13A800EFC4335420FFE5D254DF4FF5D222BC
:10134D00EF25E025E0541CFFE5D254E34FF5D22202
:10135D00EF25E025E0541CFFE5D254E34FF5D222F2
:0C141B00EF5403FFE5D254FC4FF5D22241
:0F138B00EFC4333354C0FFE5D1543F4FF5D122A7
:0E13B600EFC4335420FFE5D154DF4FF5D122B0
:0C1427007F0143D380AE071FEE70FA2255
:03151F00AFD52223
:03152200AFD42221
:06151900E5D35440FF225F
:0B144900E5D15418131313541FFF22A9
:080D910041005B0041005A0122
:100DF600E4F5FCEF14600F14601114601314601511
:100E060024047016801743FC10801243FC20800DCA
:100E160043FC30800843FC40800343FC50ED1460E3
:100E26000A14600C14600E2403800D43FC02800833
:100E360043FC04800343FC06EB700343FC0843FCBD
:020E4600012287
:0A14D6008FFFE5FE30E2FBAFFF22BE
:100FA60075BCF0D2CE43A601EF14600A14600C148F
:100FB600600E2403800D43BC02800843BC048003FA
:100FC60043BC06ED5401F433333354F842BC43BCFE
:0F0FD60001E5BE30E008900060E5BFF080F32237
:0714FA001215251212F22267
:1011870090005BE045BEF0E0FF30E50890005A7440
:1011970001F08009EF30E405E490005AF0EF54CFF6
:0A11A70090005BF090005AE0FF2278
:10132C0090005BE045BEF0E030E0037F01227F00DF
:01133C00228E
:1012F20090005BE020E00545BEF080F490005BE0EA
:0613020054FEF0AFBF2213
:031525008FBF2253
:0A14E0008FE7E5E630E1FBAFE722FD
:100BB20002065CE493A3F8E493A34003F68001F2F7
:100BC20008DFF48029E493A3F85407240CC8C33344
:100BD200C4540F4420C8834004F456800146F6DF13
:100BE200E4800B0102040810204080900D2FE47E67
:100BF200019360BCA3FF543F30E509541FFEE49308
:100C0200A360010ECF54C025E060A840B8E493A3CE
:100C1200FAE493A3F8E493A3C8C582C8CAC583CAF9
:100C2200F0A3C8C582C8CAC583CADFE9DEE780BEB1
:010D99000059
:10006600BB010689828A83E0225002E722BBFE0298
:09007600E32289828A83E49322CB
:10007F00BB010CE58229F582E5833AF583E0225036
:10008F0006E92582F8E622BBFE06E92582F8E22280
:0D009F00E58229F582E5833AF583E493229A
:1000AC00BB010689828A83F0225002F722BBFE0133
:0200BC00F3222D
:1000BE00C5F0F8A3E028F0C5F0F8E58215827002CD
:0600CE001583E038F0226A
:1000D400BB0110E58229F582E5833AF583E0F5F06A
:1000E400A3E0225009E92582F886F008E622BBFE47
:1000F4000AE92582F8E2F5F008E222E5832AF5838D
:08010400E993F5F0A3E9932251
:0C010C00ECF0A3EDF0A3EEF0A3EFF02266
:10011800A8828583F0D083D08212012F12012F127A
:10012800012F12012FE473E493A3C583C5F0C5839F
:10013800C8C582C8F0A3C583C5F0C583C8C582C831
:010148002294
:10014900E709F608DFFA8046E709F208DFFA803E98
:1001590088828C83E709F0A3DFFA8032E309F60885
:10016900DFFA806EE309F208DFFA806688828C8301
:10017900E309F0A3DFFA805A89828A83E0A3F608AB
:10018900DFFA804E89828A83E0A3F208DFFA80428F
:1001990080D280FA80C680D4805580F28029801070
:1001A90080A680EA809A80A880DA80E280CA8029C5
:1001B90088848C8589828A83E493A30592F0A315A8
:1001C90092DFF5DEF3800B89828A83E493A3F60834
:1001D900DFF9ECFAA9F0EDFB2288848C8589828A03
:1001E90083E0A30592F0A31592DFF6DEF480E3899C
:1001F900828A83E493A3F208DFF980D688F0EF605E
:10020900010E4E60CD88F0ED2402B4040050C3F510
:1002190082EB2402B4040050B923234582239001C0
:020229009973C7
:10022B00E849701C8FE98EEA8DEB8CEC8BED8AEE36
:10023B0012032DAFE9AEEAADEBACECABEDAAEE22BF
:10024B008BE98AEA89EB88EC75EF00E8CCF81203AE
:10025B002F85EB8285EC8385EFF08FE98EEA8DEBB2
:10026B0088EC8582ED8583EE00000000000053F0E2
:10027B001F7410C395F04420F5EF120330EECAFE45
:10028B00E985E98285EA838582E9F5ED8583EA8C48
:10029B00EE120332CDCFCBCFC395E9C895EA858259
:1002AB00E98FED8583EA8EEE120332F992F0C3EB00
:1002BB0095E9FBEA95EAFAE895EBC995ECF872F04B
:1002CB0050151582E582B4FF021583EF2BFBEE3A36
:0F02DB00FAED39F9EC38F8AF82AE83E4FDFC227E
:1002EA008DE98BED8CEA8AEE120333ADE9ACEAE5CF
:1002FA00EBE5EC8FE989ED8EEA88EE120333E5E946
:10030A002DFDE5EA3CFCE5EBE5EC8FE98BED8EEAA9
:10031A008AEE120333AFE9AEEAE5EB2DFDE5EC3CDC
:02032A00FC22B3
:0C032C00000000000000000000000022A3
:00000001FF
