:030000000207658F
:0C076500787FE4F6D8FD75817F0207ACB8
:1009680001720001080042002301F44200200384C0
:080978004100220041002500AE
:10049B00E4900011F0F52F7594B7759E6604F090FB
:1004AB000011E0FFD3940E500B120EB8900011E028
:1004BB0004F080EBE4FF120EB8120E98120DDF124F
:1004CB000E0A75341EE4F535121048E4F508E535CF
:1004DB0060FCD294E52F6401540175F01EA4243600
:0B04EB00FF7D1E120FF2C2947533015A
:1004F6009000127414F0D2E8900012E0FF14F0EFAE
:0405060070F6C2E8E1
:10050A00E53370FCE5086046E4F508FB7A007909F2
:10051A00F5298A2A892B12006664017031AB29E514
:10052A002B2401F9E4352AFA782C7C007D007E0020
:10053A007F0312018A852C72E52E7009C2ADAF7253
:10054A00120EB88009D2ADAD2DAF2E1203BCE4F560
:04055A00350204D989
:030063000202D7BF
:1002D700C0E0C0F0C083C082C085C084C092539282
:1002E700FEC0D075D000C000C001C002C003C0046A
:0602F700C005C006C007AF
:1002FD00AB30AA31A932E5D412007F74012532F555
:10030D0032E43531F531AB30FAA932E5D512007F43
:10031D0074012532F532E43531F531AFD4EFFEAD50
:10032D00D57C00E42DFFEC3EFEC3900024E09F90B1
:10033D000023E09E90002250057401F08006E4F049
:10034D00900025F0900022E06020900025E0701ACA
:10035D00C3900021E09F900020E09E500D120E30C2
:10036D00900022E4F090002504F015341534E534A6
:10037D00701C75341E532F01632F01E52F75F01E70
:0E038D00A42436F9E4F530F5318932753501D6
:10039B00D007D006D005D004D003D002D001D000B6
:1003AB00D0D0D092D084D085D082D083D0F0D0E082
:0103BB00320F
:100DDF00E4FF120F347F011210307F0212103CE437
:100DEF00FF120F747F01120FBC7F03120F837F015D
:0B0DFF00120FCA7F01120F44D2BC2269
:100E9800D2EAD2B97F01120CFB7F01120C3E7F010E
:100EA800120C0C7F01120FA0E4FF120CCDD2AF225E
:03004B000208F6B2
:1008F600C0E0C0F0C083C082C085C084C09253925D
:10090600FEC0D075D000C000C001C002C003C00444
:06091600C005C006C00789
:10091C0012100CEF24F0601D24F0601724C0701B23
:10092C0075080112108AEF70077F091210F880F316
:0B093C0075330080031210D0753300EB
:10094700D007D006D005D004D003D002D001D00004
:10095700D0D0D092D084D085D082D083D0F0D0E0D0
:01096700325D
:0B1054007B01E4FDFF120A287F002250
:04000E00AD07AC0688
:10001200EC5403FBED900051F0AF031210EE900090
:0800220051E0FF1210EE7F0017
:01002A0022B3
:10098000420002000042000B000041000F00420044
:1009900009019041000E05027A0000017C0041002F
:1009A000080841000D0A4100100A4100050A4100F3
:1009B000060A410000034100010341000700410015
:0209C000040031
:0E0F9200900009EEF0A3EFF090000EEDF022BB
:100E3000D3E57B9400E57A94004008D57C0B121131
:100E400000800690000EE0F57C900009E0F57AA3A2
:040E5000E0F57B222C
:0711000090000EE0F57C22D7
:0703BC00900013EDF0AB0708
:1003C300A312009D00000000E4FAF9F87F407E428A
:1003D3007D0FFC1201CA900018120091E47F02FE07
:1003E300FDFC900018E0F8A3E0F9A3E0FAA3E0FB1A
:1003F300120289E47B03FAF9F81201CA900014127D
:100403000091900013E0FFE4FCFDFEA3E0F8A3E0FD
:10041300F9A3E0FAA3E0FB120289E47B64FAF9F89A
:100423001201CA900002EEF0A3EFF0900014A3A310
:10043300E0FEA3E0FF900002E0FCA3E0FDC3EF9D1C
:10044300FFEE9C90000BF0A3EFF0EDAE047803CE2B
:10045300C313CE13D8F9FFC374109FFFE49EFEEFBE
:100463006402FF900002EEF0A3EFF090000BE0FEB9
:10047300A3E07803CEC313CE13D8F9FFC374109F40
:10048300FFE49EFEEF6402FF90000BEEF0A3EFF09B
:07049300E4900007F0D2AD78
:01049A00223F
:100E0A007D0A7F1E1203BC75CAF075CBF075C1024C
:100E1A00D2CFD2CCD2C8D2AD758901758C7F758AF2
:060E2A00FFD28CD2A922C8
:03000B0002002EC2
:10002E00C0E0758C7F758AFFE57B457A6008E57BBD
:09003E00157B7002157AD0E03246
:03002B0002061DAD
:10061D00C0E0C083C082C085C084C0925392FEC02A
:10062D00D075D000C006900008E014F0E060030221
:10063D0006C090000FE0601690000BE0FEA3E0F501
:10064D00CAEEF5CB900007E0705CD2968058900012
:10065D0002E0FEA3E0F5CAEEF5CBC296900007E0EE
:10066D007021900010E014F0E0703B90000DE090D0
:10067D000010F0900005E07002C2AD90000774010B
:10068D00F08023900006E014F0E0701A900005E071
:10069D00A3F0A3E4F0900001E014F0E070089000E6
:1006AD0000E0A3F0C2AD9000087408F090000FE0D8
:1006BD006401F0C2C6D006D0D0D092D084D085D0FF
:0606CD0082D083D0E03270
:100EB800EFD3940E40027F0EEF25E0FFC2967E012D
:0F0EC800EEC39F500A0000A296B392960E80F1DF
:010ED70022F8
:050CCD00900013EFF0A0
:100CD200E4FF120F16900014EFF0900013E0B4013D
:100CE20007A3E04401F08007900014E054FEF09066
:090CF2000014E0FDE4FF020E54C1
:050CFB00900013EFF072
:100D0000E4FF120F16900014EFF0900013E0B4010E
:100D100007A3E04402F08007900014E054FDF09037
:090D20000014E0FDE4FF020E5492
:050AC300900045EFF07A
:100AC800E4FF120F16900046EFF0900045E0146026
:100AD8001014601A24027021900046E054F7F08048
:100AE80018900046E04408F0E054FBF0800B9000BA
:100AF80046E04408F0E04404F0900046E0FDE4FFDE
:030B0800020E5486
:0807F10090003CEFF0A3EDF0D5
:1007F900E4FF120F1690003EEFF090003CE024FB5E
:10080900602414603F2402705890003DE060047F2A
:100819000080027F01EF5401C454F0FF90003EE0D4
:1008290054EF4FF0803B90003DE060047F00800270
:100839007F01EF5401C43354E0FF90003EE054DFE0
:100849004FF0801D90003DE060047F0080027F0131
:10085900EF5401C4333354C0FF90003EE054BF4FFE
:0B086900F090003EE0FDE4FF020E54A2
:0B100C007D707F07120E54EF5470FF40
:0110170022B6
:100F01007401A807088002C333D8FCFD7F07020ED5
:010F1100548B
:080003001210DAEF5470FF2225
:0806D300900030EFF0A3EDF000
:1006DB007F02120F16900032EFF07F01120F16906F
:1006EB000033EFF0900030E0FF24FA50062407604F
:1006FB003C80537401A807088002C333D8FCFD90DB
:10070B000032E04DF0900031E06008900033E04D96
:10071B00F08033900030E0FF7401A807088002C31B
:10072B0033D8FCF4FF900033E05FF0801990003277
:10073B00743FF0900031E06008900033743FF0801C
:10074B0005E4900033F0900032E0FD7F02120E546E
:0A075B00900033E0FD7F01020E5410
:0509CC0090003FEFF078
:1009D1007F02120F16900040EFF07F01120F169068
:1009E1000041EFF090003FE0FF24FA500624076039
:1009F1001B80207401A807088002C333D8FCF4FDD2
:100A0100900040E05DF0A3E05DF08007E4900040DD
:100A1100F0A3F0900040E0FD7F02120E54900041DF
:070A2100E0FD7F01020E540D
:100A7A00900035EBF0A3EAF0A3E9F0900034EFF030
:100A8A0014600A24FB501A60042406702B1210808A
:100A9A00AB07900034E0242AFFA3A3A3E0FD020DD4
:100AAA0057900034E0240AFFA3E0FBA3E0FAA3E096
:090ABA00F9120066FD120E54222F
:100B0B00900039EBF0A3EAF0A3E9F0900038EFF096
:100B1B0014600824FB60042406700D900038E0FF7D
:100B2B00A3A3A3E0FD020874900038E0240AFF128F
:100B3B000F16900039E0FBA3E0FAA3E0F9EF1200E7
:040B4B007F7F012285
:020D8500AB07BA
:100D8700AE04AF057C007DFA1201B0EF14540FC416
:100D970054F0FF900052E0540F4FF0EB540FFFE078
:0B0DA70054F04FF0E0FD7F04020E54FA
:10004E00EF24FE5403FF900053E054FC4FF0E0FD0C
:05005E007F03020E54B7
:0A1080007F03120F16EF2402FF2277
:07110700EF2411FF020E545A
:05055E00900026EFF003
:100563007F02120F16900027EFF07F01120F1690F3
:100573000028EFF0900026E014602014603114602E
:10058300421460551460642405707A900027E05487
:1005930001900029F0900028E08062900027E0C3DA
:1005A300135401900029F0900028E0C313804E906B
:1005B3000027E013135401900029F0900028E01362
:1005C30013803A900027E01313135401900029F08D
:1005D300900028E01313138024900027E0C45401F3
:1005E300900029F0900028E0C48012900027E0C416
:1005F300135401900029F0900028E0C41354019093
:10060300002AF08007E4900029F0A3F090002AE08C
:0906130025E0FF900029E02FFF13
:01061C0022BB
:061115007F08120F1622F4
:0D0FD8007F08120F16EF54F0C4540FFF22D3
:100B4F00EF146014146015146016146017146018F5
:100B5F00240570207F1180127F12800E7F13800A70
:100B6F007F1480067F1580027F16120F1690005497
:0E0B7F00EFF08005E4900054F0900054E0FF89
:010B8D002245
:100EEE00EF547FFF900055E054804FF0E0FD7F05FA
:030EFE00020E548D
:030E7700900047A1
:100E7A00120F12900048EFF0900047E0540325E06B
:0E0E8A00FFA3E054F94FF0E0FD7F06020E5486
:030B8E009000498B
:100B9100120F1290004AEFF0900049E0600C24FE21
:100BA100701590004AE04420800690004AE054DF2E
:100BB100F0E054F7F0800B90004AE054DFF0E0449D
:0C0BC10008F090004AE0FD7F06020E5490
:0A108A007F17120F16EF5401FF222A
:0C1018007F17120F16EFC3135401FF22C4
:0B105F007F17120F16EFC45401FF2290
:0C1024007F17120F16EFC4135401FF22B7
:0D0FE5007F17120F16EF5430C4540FFF2277
:0A1094007F17120F16EF5403FF221E
:06111B007F17120F1622DF
:0A109E007F08120F16EF540FFF2217
:0A10A8007F09120F16EF5401FF221A
:01004A002293
:0E0FA000EF543F900013F0E0FD7F1C020E5452
:050C0C00900013EFF061
:100C11007F1D120F16900014EFF0900013E0600496
:100C21007F0180027F00EF540125E025E0FF900065
:0D0C310014E054FB4FF0E0FD7F1D020E5457
:050C3E00900013EFF02F
:100C43007F1D120F16900014EFF0900013E0600464
:100C53007F0180027F00EF540125E0FF900014E044
:0B0C630054FD4FF0E0FD7F1D020E5419
:050D290090004BEFF00B
:100D2E007F1D120F1690004CEFF090004BE0600408
:100D3E007F0180027F00EF5401FF90004CE054FED3
:090D4E004FF0E0FD7F1D020E5480
:0D0FF200AE05AD07AF06AB077FA0020D579F
:0B106A00AF05AD01AB077FB0020D57D2
:0E0FAE00EF44A8FFAD0190002FE0FB020D57AD
:061121007F60120F162290
:0810F800AD077F081208742205
:0A10B2001210DAEF540EC313FF22F0
:0A10BC00C2E97FE31210E4D2E9223A
:0D0FFF0012111BEF5440C413135403FF22C2
:0A10C600C2E97FE21210E4D2E92231
:0A10D000C2E97FE11210E4D2E92228
:0910DA00C2E97FFF1210E4D2E923
:0110E30022EA
:030DB20090004D61
:100DB500120F1290004EEFF090004DE060047F019D
:100DC50080027F00EF5401C454F0FF90004EE054C0
:0A0DD500EF4FF0E0FD7F06020E5420
:030C6E0090004FA4
:100C7100120F12900050EFF090004FE060047F01DE
:100C810080027F00EF5401C43333335480FF90005E
:0D0C910050E0547F4FF0E0FD7F06020E544E
:040F1200EFF07F0677
:0C0F1600C2E91210E4E4FF1210E4D2E97A
:010F220022AC
:050E540090001CEDF010
:100E5900C2E9EF2420FF1210E490001DEFF090008A
:0D0E69001CE0FF1210E4D2E990001DE0FF34
:010E76002259
:0A08740090001DEDF090001CEFF065
:10087E0014600C24FB600824FE60192408703512E5
:10088E00108090001EEFF0A3F0C2E990001CE0244F
:10089E000AFF801B1210B290001CEFF0C394075099
:1008AE001312112190001EEFF0A3F0C2E97F611226
:1008BE0010E48009E490001FF090001EF090001EDE
:1008CE00E0FF14F0EF6012E4FF1210E490001DE060
:1008DE00FE04F0A806A60780E4D2E990001CE0FE14
:0708EE0090001FE0FDEDFF8B
:0108F50022E0
:100D5700C2E98FE7E4F57DE57DC39B5016ED257D60
:100D6700F8E6F57EE5E630E1FB85E77F857EE7057A
:0D0D77007D80E4E5E630E1FB85E77FD2E911
:010D8400224C
:0A10E4008FE7E5E630E1FBAFE722FD
:0909C20041004400420042000122
:100A2800E4F5FCEF14600F146011146013146015E2
:100A380024047016801743FC10801243FC20800D9C
:100A480043FC30800843FC40800343FC50ED1460B5
:100A58000A14600C14600E2403800D43FC02800805
:100A680043FC04800343FC06EB700343FC0843FC8F
:020A7800012259
:0A10EE008FFFE5FE30E2FBAFFF22AA
:100BCD0075BCF0D2CE43A601EF14600A14600C146C
:100BDD00600E2403800D43BC02800843BC048003D7
:100BED0043BC06ED5401F433333354F842BC43BCDB
:0E0BFD0001E5BE30E008900056E5BFF080F341
:010C0B0022C6
:07110E00120047120ED82267
:100C9E00900044E045BEF0E0FF30E50A900042E4EB
:100CAE00F0A304F0800BEF30E407E4900042F0A3D1
:0E0CBE00F0EF54CF900044F0900042A3E0FF0E
:010CCC002205
:100F2300900044E045BEF0E030E0037F01227F0003
:010F3300229B
:100ED800900044E020E00545BEF080F4900044E036
:060EE80054FEF0AFBF2232
:030047008FBF2246
:100F3400EF25E025E0543CFFE5D354C34FF5D3221D
:0C103000EF5403FFE5D354FC4FF5D3222E
:0F0F7400EFC4333354C0FFE5D2543F4FF5D222C0
:0E0FBC00EFC4335420FFE5D254DF4FF5D222AC
:100F4400EF25E025E0541CFFE5D254E34FF5D2220F
:100F5400EF25E025E0541CFFE5D254E34FF5D222FF
:0C103C00EF5403FFE5D254FC4FF5D22224
:0F0F8300EFC4333354C0FFE5D1543F4FF5D122B3
:0E0FCA00EFC4335420FFE5D154DF4FF5D122A0
:0B1048007F0143D380AE071FEE70FA5B
:01105300227A
:03112700AFD5221F
:03112A00AFD4221D
:100F6400E5D35440D3940040047F0180027F0022E3
:0B107500E5D15418131313541FFF2281
:1007710002049BE493A3F8E493A34003F68001F2FF
:1007810008DFF48029E493A3F85407240CC8C33389
:10079100C4540F4420C8834004F456800146F6DF58
:1007A100E4800B0102040810204080900968E47E77
:1007B100019360BCA3FF543F30E509541FFEE4934D
:1007C100A360010ECF54C025E060A840B8E493A314
:1007D100FAE493A3F8E493A3C8C582C8CAC583CA3F
:1007E100F0A3C8C582C8CAC583CADFE9DEE780BEF7
:0109CB00002B
:10006600BB010689828A83E0225002E722BBFE0298
:09007600E32289828A83E49322CB
:10007F00BB010689828A83F0225002F722BBFE0160
:02008F00F3225A
:0C009100ECF0A3EDF0A3EEF0A3EFF022E2
:10009D00A8828583F0D083D0821200B41200B412EE
:1000AD0000B41200B4E473E493A3C583C5F0C58313
:1000BD00C8C582C8F0A3C583C5F0C583C8C582C8AD
:0100CD002210
:1000CE00E709F608DFFA8046E709F208DFFA803E14
:1000DE0088828C83E709F0A3DFFA8032E309F60801
:1000EE00DFFA806EE309F208DFFA806688828C837D
:1000FE00E309F0A3DFFA805A89828A83E0A3F60827
:10010E00DFFA804E89828A83E0A3F208DFFA80420A
:10011E0080D280FA80C680D4805580F280298010EB
:10012E0080A680EA809A80A880DA80E280CA802940
:10013E0088848C8589828A83E493A30592F0A31523
:10014E0092DFF5DEF3800B89828A83E493A3F608AF
:10015E00DFF9ECFAA9F0EDFB2288848C8589828A7E
:10016E0083E0A30592F0A31592DFF6DEF480E38917
:10017E00828A83E493A3F208DFF980D688F0EF60D9
:10018E00010E4E60CD88F0ED2402B4040050C3F58C
:10019E0082EB2402B4040050B9232345822390013C
:0201AE001E73BE
:1001B0008FE98EEA8DED8CEE00000000000000005B
:0A01C00000AFE9AEEAADEDACEE22AF
:1001CA00E849701C8FE98EEA8DEB8CEC8BED8AEE98
:1001DA001202CCAFE9AEEAADEBACECABEDAAEE2283
:1001EA008BE98AEA89EB88EC75EF00E8CCF8120211
:1001FA00CE85EB8285EC8385EFF08FE98EEA8DEB75
:10020A0088EC8582ED8583EE00000000000053F043
:10021A001F7410C395F04420F5EF1202CFEECAFE08
:10022A00E985E98285EA838582E9F5ED8583EA8CA9
:10023A00EE1202D1CDCFCBCFC395E9C895EA85821C
:10024A00E98FED8583EA8EEE1202D1F992F0C3EBC3
:10025A0095E9FBEA95EAFAE895EBC995ECF872F0AC
:10026A0050151582E582B4FF021583EF2BFBEE3A97
:0F027A00FAED39F9EC38F8AF82AE83E4FDFC22DF
:100289008DE98BED8CEA8AEE1202D2ADE9ACEAE592
:10029900EBE5EC8FE989ED8EEA88EE1202D2E5E909
:1002A9002DFDE5EA3CFCE5EBE5EC8FE98BED8EEA0B
:1002B9008AEE1202D2AFE9AEEAE5EB2DFDE5EC3CA0
:0202C900FC2215
:0C02CB0000000000000000000000002205
:00000001FF
