:03000000020B0AE6
:0C0B0A00787FE4F6D8FD75817E020B5167
:100C8E0001740001080042002E01F442002B03847F
:0C0C9E004100300041002D0041003100F9
:10081B00E4900000F0F52F7594B7759E6604F09088
:10082B000000E0FFD3940E500B1211B5900000E0C6
:10083B0004F080EBE4FF1211B51210E212108D12CE
:10084B0011F575341EE4F53512137DE4F508E53525
:10085B0060FCD294900030E004F0E0547FFF9000F5
:10086B002AE02FFFE52F64015401FE75F01FA4242D
:10087B0054F8A607EE75F01FA42436F9E4FAFB7DB5
:10088B001F1213E6C2947533019000017414F0D259
:10089B00E8900001E0FF14F0EF70F6C2E8E533706A
:1008AB00FCE5086048E4F508FB7A007909F5298A2C
:1008BB002A892B12006664017033AB29E52B2401C6
:1008CB00F9E4352AFA782C7C007D007E007F031238
:1008DB000205852C74E52E7009C2ADAF741211B5EB
:1008EB00800BD2AD7B007A00792C120637E4F535FC
:0308FB0002085997
:030063000207365B
:10073600C0E0C0F0C083C082C085C084C09253921E
:10074600FEC0D075D000C000C001C002C003C00406
:10075600C005C006C007AB30AA31A932E5D41200E5
:10076600AC74012532F532E43531F531AB30FAA9F6
:1007760032E5D51200AC74012532F532E43531F597
:1007860031AFD4EFFEADD57C00E42DFFEC3EFEC3C9
:1007960090002FE09F90002EE09E90002D50057453
:1007A60001F08006E4F0900031F090002DE060202A
:1007B600900031E0701AC390002CE09F90002BE06F
:1007C6009E500D12110790002DE4F090003104F0B8
:1007D60015341534E534701C75341E532F01632F00
:1007E60001E52F75F01FA42436F9E4F530F53189BB
:1007F60032753501D007D006D005D004D003D0021B
:10080600D001D000D0D0D092D084D085D082D083F1
:05081600D0F0D0E0323B
:10108D00E4FF1212937F011213657F02121371E4B4
:10109D00FF1212D27F011212FE7F031212E17F01A5
:0B10AD0012130C7F011212A3D2BC2210
:1010E200D2EAD2B97F011210047F01120F767F017A
:1010F200120F447F011212F07F7D12125EE4FF1282
:051102000FD6D2AF2260
:03004B00020C198B
:100C1900C0E0C0F0C083C082C085C084C092539236
:100C2900FEC0D075D000C000C001C002C003C0041E
:100C3900C005C006C007121341EF24F0602024F05C
:100C4900601A24C0701E7508011213BEEF700AFBEA
:100C59007A00790912146980F0753300800312143F
:100C690018753300D007D006D005D004D003D002C0
:100C7900D001D000D0D0D092D084D085D082D0837A
:050C8900D0F0D0E032C4
:0B1389007B01E4FDFF120D557F0022E8
:10000E00AD07AC06EC5403FBED90005CF0AF0312B1
:0D001E00142C90005CE0FF12142C7F0022D7
:100CAA0042001B00004200240000410028004200CC
:100CBA0022019041002705027C0000017E004100CC
:100CCA0021084100260A4100290A41001E0A410062
:100CDA001F0A4100190341001A0341002000410084
:060CEA002A0041001D007C
:101214009000041200D4FF900022E5F0F0A3EFF058
:0B12240090000612007F900027F022CF
:10110700D3E57D9400E57C94004008D57E0B12144E
:10111700408006900027E0F57E900022E0F57CA352
:04112700E0F57D2250
:09144000900027E0F57E02112B5B
:10112B0090002A7480F0E4900020F090001EE0A361
:10113B00F0900026E0900029F0900019E0A3F0D287
:04114B00C8D2AD2237
:0A13AA00E490002AF0C2C8C2AD2290
:10063700900002EBF0A3EAF0A3E9F0A3120118007F
:10064700000000900002E0FBA3E0FAA3E0F99000AD
:100657000212007FFBE4FAF9F87F407E427D0FFC2F
:1006670012022B90000912010CE47F02FEFDFC90A0
:100677000009E0F8A3E0F9A3E0FAA3E0FB1202EA1D
:10068700E47B03FAF9F812022B90000512010C9093
:100697000002E0FBA3E0FAA3E0F990000112007F5B
:1006A700FFE4FCFDFE900005E0F8A3E0F9A3E0FA03
:1006B700A3E0FB1202EAE47B64FAF9F812022B903A
:1006C700001BEEF0A3EFF0900005A3A3E0FEA3E06C
:1006D700FF90001BE0FCA3E0FDC3EF9DFFEE9C90A5
:1006E7000024F0A3EFF0EDAE047803CEC313CE13CE
:1006F700D8F9FFC374109FFFE49EFEEF6402FF90DA
:10070700001BEEF0A3EFF0900024E0FEA3E07803D7
:10071700CEC313CE13D8F9FFC374109FFFE49EFE18
:0F072700EF6402FF900024EEF0A3EFF002112B1D
:1011F50075CAF075CBF075C102D2CFD2CCD2C8D2A8
:0F120500AD758901758C7F758AFFD28CD2A922B5
:03000B0002122FAF
:10122F00C0E0758C7F758AFFE57D457C6008E57DA4
:09123F00157D7002157CD0E0322F
:03002B000209BD0A
:1009BD00C0E0C083C082C085C084C0925392FEC087
:1009CD00D075D000C006C007900021E014F0E060A3
:1009DD0003020A63900028E06016900024E0FEA355
:1009ED00E0F5CAEEF5CB900020E0705DD29680590F
:1009FD0090001BE0FEA3E0F5CAEEF5CBC296900089
:100A0D0020E07021900029E014F0E0703C90002669
:100A1D00E0900029F090001EE07002C2AD90002021
:100A2D007401F0802490001FE014F0E0701B900022
:100A3D001EE0A3F0A3E4F0900019E0FF600BA3E02B
:100A4D0014F0E07004EFF0C2AD9000217408F09046
:100A5D000028E06401F0C2C6D007D006D0D0D092F5
:0B0A6D00D084D085D082D083D0E0324E
:1011B500EFD3940E40027F0EEF25E0FFC2937E0130
:1011C500EEC39F500A0000A293B392930E80F122C2
:100FD600900002EFF0E4FF120032900003EFF09071
:100FE6000002E0B40107A3E04401F080079000038B
:0E0FF600E054FEF0900003E0FDE4FF0211D590
:10100400900002EFF0E4FF120032900003EFF09042
:101014000002E0B40107A3E04402F080079000035B
:0E102400E054FDF0900003E0FDE4FF0211D562
:100DF70090004EEFF0E4FF12003290004FEFF090BA
:100E0700004EE014601014601A2402702190004F05
:100E1700E054F7F0801890004FE04408F0E054FBEE
:100E2700F0800B90004FE04408F0E04404F090009D
:080E37004FE0FDE4FF0211D5BC
:100B9600900048EFF0A3EDF0E4FF12003290004A17
:100BA600EFF0900048E024FB602414603F240270BC
:100BB60058900049E060047F0080027F01EF5401F5
:100BC600C454F0FF90004AE054EF4FF0803B900091
:100BD60049E060047F0080027F01EF5401C4335472
:100BE600E0FF90004AE054DF4FF0801D900049E09E
:100BF60060047F0080027F01EF5401C4333354C088
:100C0600FF90004AE054BF4FF090004AE0FDE4FF39
:030C16000211D5F3
:0C1341007D707F071211D5EF5470FF2261
:10114F007D707F071211D5EF547090005DF0E0FFB6
:10115F00C0077F07120032EF540FFED0E04EFF9012
:04116F00005DF0220D
:101271007401A807088002C333D8FCFD7F0702115F
:01128100D597
:08000300121422EF5470FF22D9
:100A780090003CEFF0A3EDF07F0212003290003EB0
:100A8800EFF07F0112003290003FEFF090003CE061
:100A9800FF24FA50062407603C80537401A8070815
:100AA8008002C333D8FCFD90003EE04DF090003D3D
:100AB800E0600890003FE04DF0803390003CE0FF9C
:100AC8007401A807088002C333D8FCF4FF90003FE4
:100AD800E05FF0801990003E743FF090003DE060C8
:100AE8000890003F743FF08005E490003FF09000CC
:100AF8003EE0FD7F021211D590003FE0FD7F01022C
:020B080011D505
:100CF90090004BEFF07F0212003290004CEFF07F32
:100D09000112003290004DEFF090004BE0FF24FA01
:100D190050062407601B80207401A807088002C3BD
:100D290033D8FCF4FD90004CE05DF0A3E05DF08069
:100D390007E490004CF0A3F090004CE0FD7F021214
:0C0D490011D590004DE0FD7F010211D596
:100DA700900041EBF0A3EAF0A3E9F0900040EFF0E8
:100DB70014600A24FB50216004240670321213B415
:100DC700900006EFF0900040E0242AFFA3E0FBA389
:100DD700E0FAA3E0F902052F900040E0240AFFA300
:100DE700E0FBA3E0FAA3E0F9120066FD1211D52299
:100E3F00900045EBF0A3EAF0A3E9F0900044EFF047
:100E4F0014600824FB600424067011900044E0FF36
:100E5F00A3E0FBA3E0FAA3E0F9020338900044E01B
:100E6F00240AFF120032900045E0FBA3E0FAA3E052
:080E7F00F9EF1200AC7F012223
:10117300AB07EC540FC454F0FF90005EE0540F4FE4
:10118300F0EB540FFFE054F04FF0E0FD7F04021149
:01119300D586
:10004E00EF24FE5403FF90005FE054FC4FF0E0FD00
:05005E007F030211D533
:0A13B4007F03120032EF2402FF2233
:07144900EF2411FF0211D591
:1008FE00900032EFF07F02120032900033EFF07F63
:10090E0001120032900034EFF0900032E0146020BB
:10091E001460311460421460551460642405707ABA
:10092E00900033E05401900035F0900034E0806286
:10093E00900033E0C3135401900035F0900034E082
:10094E00C313804E900033E013135401900035F022
:10095E00900034E01313803A900033E013131354D5
:10096E0001900035F0900034E013131380249000B2
:10097E0033E0C45401900035F0900034E0C480128E
:10098E00900033E0C4135401900035F0900034E031
:10099E00C4135401900036F08007E4900035F0A3A4
:0F09AE00F0900036E025E0FF900035E02FFF22AB
:061457007F0812003222A2
:0D131A007F08120032EF54F0C4540FFF2280
:100E8700EF146014146015146016146017146018BA
:100E9700240570207F1180127F12800E7F13800A35
:100EA7007F1480067F1580027F1612003290006043
:0F0EB700EFF08005E4900060F0900060E0FF2213
:10125E00EF547FFF900002E054804FF0E0FD7F05D9
:03126E000211D595
:1011940090005012002E900051EFF0900050E05457
:1011A4000325E0FFA3E054F94FF0E0FD7F060211B0
:0111B400D565
:100EC60090005212002E900053EFF0900052E06016
:100ED6000C24FE7015900053E044208006900053C9
:100EE600E054DFF0E054F7F0800B900053E054DF5D
:0F0EF600F0E04408F0900053E0FD7F060211D5B4
:0A13BE007F17120032EF5401FF22E6
:0C134D007F17120032EFC3135401FF227F
:0B1394007F17120032EFC45401FF224B
:0C1359007F17120032EFC4135401FF2272
:0D1327007F17120032EF5430C4540FFF2224
:0A13C8007F17120032EF5403FF22DA
:06145D007F17120032228D
:0A13D2007F08120032EF540FFF22D3
:0A13DC007F09120032EF5401FF22D6
:01004A002293
:0E12F000EF543F900002F0E0FD7F1C0211D58C
:100F4400900002EFF07F1D120032900003EFF0904A
:100F54000002E060047F0180027F00EF540125E07D
:100F640025E0FF900003E054FB4FF0E0FD7F1D02FD
:020F740011D595
:100F7600900002EFF07F1D120032900003EFF09018
:100F86000002E060047F0180027F00EF540125E04B
:100F9600FF900003E054FD4FF0E0FD7F1D0211D5E8
:10103200900054EFF07F1D120032900055EFF090B7
:101042000054E060047F0180027F00EF5401FF90B2
:0E1052000055E054FE4FF0E0FD7F1D0211D569
:0A13E600900006EDF07FA002052F35
:0A13F000900006EDF07FB002052F1B
:0F12C300EF44A8FF90003BE0900006F002052FDB
:061463007F60120032223E
:061469007F081203382287
:0A13FA00121422EF540EC313FF2259
:0A140400C2E97FE3121436D2E92298
:0D13340012145DEF5440C413135403FF2244
:0A140E00C2E97FE2121436D2E9228F
:0A141800C2E97FE1121436D2E92286
:0A142200C2E97FFF121436D2E9225E
:1010600090005612002E900057EFF0900056E0606E
:10107000047F0180027F00EF5401C454F0FF900010
:0D10800057E054EF4FF0E0FD7F060211D560
:100FA60090005812002E900059EFF0900058E06023
:100FB600047F0180027F00EF5401C4333333548031
:100FC600FF900059E0547F4FF0E0FD7F060211D5F7
:04002E00EFF07F066A
:10003200C2E98FE7E5E630E1FBAFE7E4F5E7E5E6A5
:0800420030E1FBAFE7D2E92237
:1011D500C2E9EF2420F5E7E5E630E1FBAFE7AE0530
:1011E5008EE7E5E630E1FB90000DE5E7F0D2E92278
:1003380090000EEBF0A3EAF0A3E9F090000DEFF0C7
:100348009000157401F090000EE0900013F0EF1487
:10035800600C24FB600824FE601924087035121311
:10036800B4900011EFF0A3F0C2E990000DE0240A68
:10037800FF801B1213FA90000DEFF0C3940750137F
:10038800121463900011EFF0A3F0C2E97F61121418
:10039800368009E4900012F0900011F0900013E00C
:1003A800FF704B90000EA3A3E0900016F0E4F5E771
:1003B800900015E07011900014E0FE900016E0F82F
:1003C800A606E004F08005E4900015F0E5E630E1CB
:1003D800FB900014E5E7F0900011E014F070CE9067
:1003E8000014E0FE900016E0F8A606020520EF646F
:1003F80001706990000EA3E0FAA3E0FF900016EAEE
:10040800F0A3EFF0E4F5E7900015E07022900014F7
:10041800E0FF900016E0FCA3E0F5828C83EFF090FB
:100428000017E004F0700D900016E004F08005E479
:10043800900015F0E5E630E1FB900014E5E7F09058
:100448000011E014F070BD900014E0FF900016E079
:10045800FCA3E0F5828C83EFF0020520900013E006
:1004680064FE704A90000EA3A3E0900016F0E4F535
:10047800E7900015E07011900014E0FF900016E07E
:10048800F8EFF2E004F08005E4900015F0E5E630BE
:10049800E1FB900014E5E7F0900011E014F070CE55
:1004A800900014E0FF900016E0F8EFF2806A9000E8
:1004B8000EE0F9A3E0FAA3E0900016C9F0A3EAF071
:1004C800A3E9F0E4F5E7900015E07020900014E04F
:1004D800FF900016E0FBA3E0FAA3E0F9EF1200ACEE
:1004E800900017E475F0011200BE8005E490001535
:1004F800F0E5E630E1FB900014E5E7F0900011E04C
:1005080014F070BF900014E0FF900016E0FBA3E029
:10051800FAA3E0F9EF1200ACD2E990000DE0FE90EA
:070528000012E0FDEDFF22CF
:10052F00900003EBF0A3EAF0A3E9F0900003E0FDE5
:10053F00C2E98FE7ED7029A3A3E0900008F09000C7
:10054F0008E0F8E6FEE004F0E5E630E1FB90000796
:10055F00E5E7F08EE7900006E014F070E10206295F
:10056F00ED64017042900003A3E0FBA3E09000084C
:10057F00CBF0A3EBF0900008E0FEA3E0F5828E83B2
:10058F00E0FE900009E004F07006900008E004F02F
:10059F00E5E630E1FB900007E5E7F08EE790000617
:1005AF00E014F070D08073ED64FE702B900003A305
:1005BF00A3E0900008F0900008E0F8E2FEE004F0FD
:1005CF00E5E630E1FB900007E5E7F08EE7900006E7
:1005DF00E014F070E18043900003E0F9A3E0FAA388
:1005EF00E0900008C9F0A3EAF0A3E9F0900008E05A
:1005FF00FBA3E0FAA3E0F9120066FE900009E47590
:10060F00F0011200BEE5E630E1FB900007E5E7F0F0
:10061F008EE7900006E014F070D2E5E630E1FB9033
:08062F000007E5E7F0D2E92223
:10129300EF25E025E0543CFFE5D354C34FF5D322BB
:0C136500EF5403FFE5D354FC4FF5D322F6
:0F12D200EFC4333354C0FFE5D2543F4FF5D2225F
:0E12FE00EFC4335420FFE5D254DF4FF5D22267
:1012A300EF25E025E0541CFFE5D254E34FF5D222AD
:1012B300EF25E025E0541CFFE5D254E34FF5D2229D
:0C137100EF5403FFE5D254FC4FF5D222EC
:0F12E100EFC4333354C0FFE5D1543F4FF5D12252
:0E130C00EFC4335420FFE5D154DF4FF5D1225A
:0C137D007F0143D380AE071FEE70FA2200
:03147500AFD522CE
:03147800AFD422CC
:06146F00E5D35440FF220A
:0B139F00E5D15418131313541FFF2254
:080CF00041005B0041005A01C4
:100D5500E4F5FCEF14600F146011146013146015B2
:100D650024047016801743FC10801243FC20800D6C
:100D750043FC30800843FC40800343FC50ED146085
:100D85000A14600C14600E2403800D43FC028008D5
:100D950043FC04800343FC06EB700343FC0843FC5F
:020DA500012229
:0A142C008FFFE5FE30E2FBAFFF2268
:100F050075BCF0D2CE43A601EF14600A14600C1430
:100F1500600E2403800D43BC02800843BC0480039B
:100F250043BC06ED5401F433333354F842BC43BC9F
:0F0F350001E5BE30E008900061E5BFF080F322D7
:0714500012147B1212482266
:1010B80090005BE045BEF0E0FF30E50890005A7410
:1010C80001F08009EF30E405E490005AF0EF54CFC6
:0A10D80090005BF090005AE0FF2248
:1012820090005BE045BEF0E030E0037F01227F008A
:011292002239
:1012480090005BE020E00545BEF080F490005BE094
:0612580054FEF0AFBF22BE
:03147B008FBF22FE
:0A1436008FE7E5E630E1FBAFE722A7
:100B160002081BE493A3F8E493A34003F68001F2D2
:100B260008DFF48029E493A3F85407240CC8C333E0
:100B3600C4540F4420C8834004F456800146F6DFAF
:100B4600E4800B0102040810204080900C8EE47EA5
:100B5600019360BCA3FF543F30E509541FFEE493A4
:100B6600A360010ECF54C025E060A840B8E493A36B
:100B7600FAE493A3F8E493A3C8C582C8CAC583CA96
:100B8600F0A3C8C582C8CAC583CADFE9DEE780BE4E
:010CF80000FB
:10006600BB010689828A83E0225002E722BBFE0298
:09007600E32289828A83E49322CB
:10007F00BB010CE58229F582E5833AF583E0225036
:10008F0006E92582F8E622BBFE06E92582F8E22280
:0D009F00E58229F582E5833AF583E493229A
:1000AC00BB010689828A83F0225002F722BBFE0133
:0200BC00F3222D
:1000BE00C5F0F8A3E028F0C5F0F8E58215827002CD
:0600CE001583E038F0226A
:1000D400BB0110E58229F582E5833AF583E0F5F06A
:1000E400A3E0225009E92582F886F008E622BBFE47
:1000F4000AE92582F8E2F5F008E222E5832AF5838D
:08010400E993F5F0A3E9932251
:0C010C00ECF0A3EDF0A3EEF0A3EFF02266
:10011800A8828583F0D083D08212012F12012F127A
:10012800012F12012FE473E493A3C583C5F0C5839F
:10013800C8C582C8F0A3C583C5F0C583C8C582C831
:010148002294
:10014900E709F608DFFA8046E709F208DFFA803E98
:1001590088828C83E709F0A3DFFA8032E309F60885
:10016900DFFA806EE309F208DFFA806688828C8301
:10017900E309F0A3DFFA805A89828A83E0A3F608AB
:10018900DFFA804E89828A83E0A3F208DFFA80428F
:1001990080D280FA80C680D4805580F28029801070
:1001A90080A680EA809A80A880DA80E280CA8029C5
:1001B90088848C8589828A83E493A30592F0A315A8
:1001C90092DFF5DEF3800B89828A83E493A3F60834
:1001D900DFF9ECFAA9F0EDFB2288848C8589828A03
:1001E90083E0A30592F0A31592DFF6DEF480E3899C
:1001F900828A83E493A3F208DFF980D688F0EF605E
:10020900010E4E60CD88F0ED2402B4040050C3F510
:1002190082EB2402B4040050B923234582239001C0
:020229009973C7
:10022B00E849701C8FE98EEA8DEB8CEC8BED8AEE36
:10023B0012032DAFE9AEEAADEBACECABEDAAEE22BF
:10024B008BE98AEA89EB88EC75EF00E8CCF81203AE
:10025B002F85EB8285EC8385EFF08FE98EEA8DEBB2
:10026B0088EC8582ED8583EE00000000000053F0E2
:10027B001F7410C395F04420F5EF120330EECAFE45
:10028B00E985E98285EA838582E9F5ED8583EA8C48
:10029B00EE120332CDCFCBCFC395E9C895EA858259
:1002AB00E98FED8583EA8EEE120332F992F0C3EB00
:1002BB0095E9FBEA95EAFAE895EBC995ECF872F04B
:1002CB0050151582E582B4FF021583EF2BFBEE3A36
:0F02DB00FAED39F9EC38F8AF82AE83E4FDFC227E
:1002EA008DE98BED8CEA8AEE120333ADE9ACEAE5CF
:1002FA00EBE5EC8FE989ED8EEA88EE120333E5E946
:10030A002DFDE5EA3CFCE5EBE5EC8FE98BED8EEAA9
:10031A008AEE120333AFE9AEEAE5EB2DFDE5EC3CDC
:02032A00FC22B3
:0C032C00000000000000000000000022A3
:00000001FF
