:03000000020B767A
:0C0B7600787FE4F6D8FD758171020BBD9C
:100CFA0001080042002E01F442002B038441003017
:090D0A000041002D004100310000
:10065C00E4900000F0F5217593BF7F0E12122FE489
:10066C00FF12122F120FB012112C12126F75261EC0
:10067C00E4F527121447E4F508E52760FCD29490C2
:10068C000030E004F0E0547FFF90002AE02FFFE5FB
:10069C002164015401FE75F01FA42446F8A607EE50
:1006AC0075F01FA42428F9E4FAFB7D1F1214D3C2A1
:1006BC00947525019000017414F0D2E8900001E0CB
:1006CC00FF14F0EF70F6C2E8E52570FCE508700346
:1006DC0002076AE4F508FB7A007909F5188A19898A
:1006EC001A12006664017039AB18E51A2401F9E49A
:1006FC003519FA781B7C007D007E007F06120205FE
:10070C00E51D6004E51B700EC2ADE490002AF0AF4D
:10071C001B12122F800BD2AD7B007A00791B1205B5
:10072C002FAB18AA19A91A120066B40231E92407D2
:10073C00F9E43AFA78667C007D007E007F081202AC
:10074C000590002EE568F0A3E569F090002BE566B6
:10075C00F0A3E567F07B007A00796612128EE4F55F
:04076C0027020685D5
:030063000209642B
:10096400C0E0C0F0C083C082C085C084C0925392EE
:10097400FEC0D075D000C000C001C002C003C004D6
:10098400C005C006C007AB22AA23A924E5D51200DE
:10099400AC74012524F524E43523F523AFD57E007A
:1009A400C390002FE09F90002EE09E90002D5005F4
:1009B4007401F08006E4F0900031F090002DE060C6
:1009C40020900031E0701AC390002CE09F90002B1F
:1009D400E09E500D12118190002DE4F0900031043E
:1009E400F0D5261C75261E532101632101E52175CE
:1009F400F01FA42428F9E4F522F52389247527019E
:100A0400D007D006D005D004D003D002D001D00046
:100A1400D0D0D092D084D085D082D083D0F0D0E012
:010A2400329F
:10112C00E4FF12131E7F0112142FE4FF12143B7FF5
:10113C000112138D7F011213C87F0112139C7F01C2
:0B114C001213D6E4FF12132ED2BC22B7
:100FB000D2EAD2B97F011210A37F0312120E7F0171
:100FC0001210157F01120FE37F011213BA7F7D12F9
:100FD00012D87DFA7C007F051211EDE4FF12107526
:030FE000D2AF226B
:03004B00020C851F
:100C8500C0E0C0F0C083C082C085C084C0925392CA
:100C9500FEC0D075D000C000C001C002C003C004B2
:100CA500C005C006C00712140BEF24F0602024F025
:100CB500601A24C0701E7508011214ABEF700AFB90
:100CC5007A00790912155680F075250080031215F2
:100CD50005752500D007D006D005D004D003D00275
:100CE500D001D000D0D0D092D084D085D082D0830E
:050CF500D0F0D0E03258
:0B146B007B01E4FDFF120DC17F002299
:10000E00AD07AC06EC5403FBED90005AF0AF0312B3
:0D001E00151990005AE0FF1215197F0022FD
:100D130042001B0000420024000041002800420062
:100D230022019041002705026E000001710041007D
:100D330021084100260A4100290A41001E0A4100F8
:100D43001F0A4100190341001A03017000410020EA
:090D53000041002A0041001D00CE
:10128E009000041200D4FF900022E5F0F0A3EFF0DE
:0B129E0090000612007F900027F02255
:10118100D3E56F9400E56E94004008D5710B1215FC
:101191002D8006900027E0F571900022E0F56EA306
:0411A100E0F56F22E4
:09152D00900027E0F5710211A500
:1011A50090002A7480F0E4900020F090001EE0A3E7
:1011B500F0900026E0900029F0900019E0A3F0D20D
:0411C500C8D2AD22BD
:0A149700E490002AF0C2C8C2AD22A2
:10052F00900002EBF0A3EAF0A3E9F0A31201180088
:10053F00000000900002E0FBA3E0FAA3E0F99000B6
:10054F000212007FFBE4FAF9F87F407E427D0FFC38
:10055F0012022B90000912010CE47F02FEFDFC90A9
:10056F000009E0F8A3E0F9A3E0FAA3E0FB1202EA26
:10057F00E47B03FAF9F812022B90000512010C909C
:10058F000002E0FBA3E0FAA3E0F990000112007F64
:10059F00FFE4FCFDFE900005E0F8A3E0F9A3E0FA0C
:1005AF00A3E0FB1202EAE47B64FAF9F812022B9043
:1005BF00001BEEF0A3EFF0900005A3A3E0FEA3E075
:1005CF00FF90001BE0FCA3E0FDC3EF9DFFEE9C90AE
:1005DF000024F0A3EFF0EDAE047803CEC313CE13D7
:1005EF00D8F9FFC374109FFFE49EFEEF6402FF90E3
:1005FF00001BEEF0A3EFF0900024E0FEA3E07803E1
:10060F00CEC313CE13D8F9FFC374109FFFE49EFE21
:10061F00EF6402FF900024EEF0A3EFF0900002E0F1
:10062F00FBA3E0FAA3E0F990000412007F90001EF4
:10063F00F090000312007F900026F090000512004A
:0D064F007F900019F0120066F5700211A5F1
:10126F0075CAF075CBF075C102D2CFD2CCD2C8D22D
:0F127F00AD758901758C7F758AFFD28CD2A9223B
:03000B000212A935
:1012A900C0E0758C7F758AFFE56F456E6008E56F54
:0912B900156F7002156ED0E032D1
:03002B0002087850
:10087800C0E0C0F0C083C082C085C084C0925392DB
:10088800FEC0D075D000C000C001C002C003C004C3
:10089800C005C006C007900021E014F0E060030224
:1008A8000941900028E06019900024E0FEA3E0F5DB
:1008B800CAEEF5CB900020E07072AF7012122F8054
:1008C8006B90001BE0FEA3E0F5CAEEF5CBE4FF1247
:1008D800122F900020E0702F900029E014F0E070B3
:1008E8004B900026E0900029F090001EE0600890F0
:1008F80000207401F08035900019E0FF602EA3E01D
:1009080014F0E07027802090001FE014F0E0701CC5
:1009180090001EE0A3F0A3E4F0900019E0FF600C43
:10092800A3E014F0E07005EFF01214979000217422
:1009380008F0900028E06401F0C2C6D007D006D0C5
:1009480005D004D003D002D001D000D0D0D092D0AE
:0C09580084D085D082D083D0F0D0E03273
:10122F00EFD3940E40027F0EEF25E0FFC2867E01C2
:10123F00EEC39F500A0000A286B392860E80F12261
:10107500900002EFF0E4FF120032900003EFF090D1
:101085000002E0B40107A3E04401F08007900003EB
:0E109500E054FEF0900003E0FDE4FF02124F75
:1010A300900002EFF0E4FF120032900003EFF090A3
:1010B3000002E0B40107A3E04402F08007900003BC
:0E10C300E054FDF0900003E0FDE4FF02124F48
:100E630090004EEFF0E4FF12003290004FEFF0904D
:100E7300004EE014601014601A2402702190004F99
:100E8300E054F7F0801890004FE04408F0E054FB82
:100E9300F0800B90004FE04408F0E04404F0900031
:080EA3004FE0FDE4FF02124FD5
:100C0200900048EFF0A3EDF0E4FF12003290004AAA
:100C1200EFF0900048E024FB602414603F2402704F
:100C220058900049E060047F0080027F01EF540188
:100C3200C454F0FF90004AE054EF4FF0803B900024
:100C420049E060047F0080027F01EF5401C4335405
:100C5200E0FF90004AE054DF4FF0801D900049E031
:100C620060047F0080027F01EF5401C4333354C01B
:100C7200FF90004AE054BF4FF090004AE0FDE4FFCD
:030C820002124F0C
:0C140B007D707F0712124FEF5470FF221B
:1011C9007D707F0712124FEF547090005BF0E0FFC3
:1011D900C0077F07120032EF540FFED0E04EFF9098
:0411E900005BF02295
:1012EB007401A807088002C333D8FCFD7F070212E4
:0112FB004FA3
:0800030012150FEF5470FF22EB
:100AE40090003CEFF0A3EDF07F0212003290003E44
:100AF400EFF07F0112003290003FEFF090003CE0F5
:100B0400FF24FA50062407603C80537401A80708A8
:100B14008002C333D8FCFD90003EE04DF090003DD0
:100B2400E0600890003FE04DF0803390003CE0FF2F
:100B34007401A807088002C333D8FCF4FF90003F77
:100B4400E05FF0801990003E743FF090003DE0605B
:100B54000890003F743FF08005E490003FF090005F
:100B64003EE0FD7F0212124F90003FE0FD7F010244
:020B7400124F1E
:100D650090004BEFF07F0212003290004CEFF07FC5
:100D75000112003290004DEFF090004BE0FF24FA95
:100D850050062407601B80207401A807088002C351
:100D950033D8FCF4FD90004CE05DF0A3E05DF080FD
:100DA50007E490004CF0A3F090004CE0FD7F0212A8
:0C0DB500124F90004DE0FD7F0102124F34
:100E1300900041EBF0A3EAF0A3E9F0900040EFF07B
:100E230014600A24FB50216004240670321214A1BA
:100E3300900006EFF0900040E0242AFFA3E0FBA31C
:100E4300E0FAA3E0F9020770900040E0240AFFA350
:100E5300E0FBA3E0FAA3E0F9120066FD12124F22B1
:100EAB00900045EBF0A3EAF0A3E9F0900044EFF0DB
:100EBB0014600824FB600424067011900044E0FFCA
:100ECB00A3E0FBA3E0FAA3E0F9020338900044E0AF
:100EDB00240AFF120032900045E0FBA3E0FAA3E0E6
:080EEB00F9EF1200AC7F0122B7
:1011ED00AB07EC540FC454F0FF900002E0540F4FC6
:1011FD00F0EB540FFFE054F04FF0E0FD7F040212CE
:01120D004F91
:10004E00EF24FE5403FF90005CE054FC4FF0E0FD03
:05005E007F0302124FB8
:0A14A1007F03120032EF2402FF2245
:07153600EF2411FF02124F28
:100A2500900032EFF07F02120032900033EFF07F3A
:100A350001120032900034EFF0900032E014602093
:100A45001460311460421460551460642405707A92
:100A5500900033E05401900035F0900034E080625E
:100A6500900033E0C3135401900035F0900034E05A
:100A7500C313804E900033E013135401900035F0FA
:100A8500900034E01313803A900033E013131354AD
:100A950001900035F0900034E0131313802490008A
:100AA50033E0C45401900035F0900034E0C4801266
:100AB500900033E0C4135401900035F0900034E009
:100AC500C4135401900036F08007E4900035F0A37C
:0F0AD500F0900036E025E0FF900035E02FFF2283
:061544007F0812003222B4
:0D13E4007F08120032EF54F0C4540FFF22B6
:100EF300EF1460141460151460161460171460184E
:100F0300240570207F1180127F12800E7F13800AC8
:100F13007F1480067F1580027F1612003290005DD9
:0F0F2300EFF08005E490005DF090005DE0FF22AC
:1012D800EF547FFF900002E054804FF0E0FD7F055F
:0312E80002124FA0
:10120E0090000212002E900003EFF0900002E054C6
:10121E000325E0FFA3E054F94FF0E0FD7F06021234
:01122E004F70
:100F320090005012002E900051EFF0900050E060AF
:100F42000C24FE7015900051E04420800690005160
:100F5200E054DFF0E054F7F0800B900051E054DFF2
:0F0F6200F0E04408F0900051E0FD7F0602124FCE
:0A14AB007F17120032EF5401FF22F8
:0C1417007F17120032EFC3135401FF22B4
:0B1476007F17120032EFC45401FF2268
:0C1423007F17120032EFC4135401FF22A7
:0D13F1007F17120032EF5430C4540FFF225A
:0A14B5007F17120032EF5403FF22EC
:06154A007F17120032229F
:0A14BF007F08120032EF540FFF22E5
:0A14C9007F09120032EF5401FF22E8
:01004A002293
:0E13BA00EF543F900002F0E0FD7F1C02124F46
:100FE300900002EFF07F1D120032900003EFF090AB
:100FF3000002E060047F0180027F00EF540125E0DE
:1010030025E0FF900003E054FB4FF0E0FD7F1D025D
:02101300124F7A
:10101500900002EFF07F1D120032900003EFF09078
:101025000002E060047F0180027F00EF540125E0AB
:10103500FF900003E054FD4FF0E0FD7F1D02124FCD
:1010D100900052EFF07F1D120032900053EFF0901C
:1010E1000052E060047F0180027F00EF5401FF9015
:0E10F1000053E054FE4FF0E0FD7F1D02124F51
:0A14D300900006EDF07FA002077004
:0A14DD00900006EDF07FB0020770EA
:0F137E00EF44A8FF90003BE0900006F0020770DC
:061550007F601200322250
:061556007F081203382299
:0A14E70012150FEF540EC313FF227D
:0A14F100C2E97FE3121523D2E922BD
:0D13FE0012154AEF5440C413135403FF228C
:0A14FB00C2E97FE2121523D2E922B4
:0A150500C2E97FE1121523D2E922AA
:0A150F00C2E97FFF121523D2E92282
:1010FF0090005412002E900055EFF0900054E060D5
:10110F00047F0180027F00EF5401C454F0FF900070
:0D111F0055E054EF4FF0E0FD7F0602124F47
:1010450090005612002E900057EFF0900056E06089
:10105500047F0180027F00EF5401C4333333548091
:10106500FF900057E0547F4FF0E0FD7F0602124FDE
:04002E00EFF07F066A
:10003200C2E98FE7E5E630E1FBAFE7E4F5E7E5E6A5
:0800420030E1FBAFE7D2E92237
:10124F00C2E9EF2420F5E7E5E630E1FBAFE7AE05B5
:10125F008EE7E5E630E1FB90000DE5E7F0D2E922FD
:1003380090000EEBF0A3EAF0A3E9F090000DEFF0C7
:100348009000157401F090000EE0900013F0EF1487
:10035800600C24FB600824FE601924087035121410
:10036800A1900011EFF0A3F0C2E990000DE0240A7B
:10037800FF801B1214E790000DEFF0C39407501391
:10038800121550900011EFF0A3F0C2E97F61121529
:10039800238009E4900012F0900011F0900013E01F
:1003A800FF704B90000EA3A3E0900016F0E4F5E771
:1003B800900015E07011900014E0FE900016E0F82F
:1003C800A606E004F08005E4900015F0E5E630E1CB
:1003D800FB900014E5E7F0900011E014F070CE9067
:1003E8000014E0FE900016E0F8A606020520EF646F
:1003F80001706990000EA3E0FAA3E0FF900016EAEE
:10040800F0A3EFF0E4F5E7900015E07022900014F7
:10041800E0FF900016E0FCA3E0F5828C83EFF090FB
:100428000017E004F0700D900016E004F08005E479
:10043800900015F0E5E630E1FB900014E5E7F09058
:100448000011E014F070BD900014E0FF900016E079
:10045800FCA3E0F5828C83EFF0020520900013E006
:1004680064FE704A90000EA3A3E0900016F0E4F535
:10047800E7900015E07011900014E0FF900016E07E
:10048800F8EFF2E004F08005E4900015F0E5E630BE
:10049800E1FB900014E5E7F0900011E014F070CE55
:1004A800900014E0FF900016E0F8EFF2806A9000E8
:1004B8000EE0F9A3E0FAA3E0900016C9F0A3EAF071
:1004C800A3E9F0E4F5E7900015E07020900014E04F
:1004D800FF900016E0FBA3E0FAA3E0F9EF1200ACEE
:1004E800900017E475F0011200BE8005E490001535
:1004F800F0E5E630E1FB900014E5E7F0900011E04C
:1005080014F070BF900014E0FF900016E0FBA3E029
:10051800FAA3E0F9EF1200ACD2E990000DE0FE90EA
:070528000012E0FDEDFF22CF
:10077000900003EBF0A3EAF0A3E9F0900003E0FDA2
:10078000C2E98FE7ED7029A3A3E0900008F0900084
:1007900008E0F8E6FEE004F0E5E630E1FB90000753
:1007A000E5E7F08EE7900006E014F070E102086AD9
:1007B000ED64017042900003A3E0FBA3E090000809
:1007C000CBF0A3EBF0900008E0FEA3E0F5828E836F
:1007D000E0FE900009E004F07006900008E004F0EC
:1007E000E5E630E1FB900007E5E7F08EE7900006D4
:1007F000E014F070D08073ED64FE702B900003A3C2
:10080000A3E0900008F0900008E0F8E2FEE004F0B9
:10081000E5E630E1FB900007E5E7F08EE7900006A3
:10082000E014F070E18043900003E0F9A3E0FAA344
:10083000E0900008C9F0A3EAF0A3E9F0900008E016
:10084000FBA3E0FAA3E0F9120066FE900009E4754C
:10085000F0011200BEE5E630E1FB900007E5E7F0AD
:100860008EE7900006E014F070D2E5E630E1FB90F0
:080870000007E5E7F0D2E922E0
:10131E00EF25E025E0543CFFE5D354C34FF5D3222F
:0C142F00EF5403FFE5D354FC4FF5D3222B
:0F138D00EFC4333354C0FFE5D2543F4FF5D222A3
:0E13C800EFC4335420FFE5D254DF4FF5D2229C
:10132E00EF25E025E0541CFFE5D254E34FF5D22221
:10133E00EF25E025E0541CFFE5D254E34FF5D22211
:0C143B00EF5403FFE5D254FC4FF5D22221
:0F139C00EFC4333354C0FFE5D1543F4FF5D12296
:0E13D600EFC4335420FFE5D154DF4FF5D12290
:0C1447007F0143D380AE071FEE70FA2235
:03156200AFD522E0
:03156500AFD422DE
:06155C00E5D35440FF221C
:0B148100E5D15418131313541FFF2271
:080D5C0041005900410058015B
:100DC100E4F5FCEF14600F14601114601314601546
:100DD10024047016801743FC10801243FC20800D00
:100DE10043FC30800843FC40800343FC50ED146019
:100DF1000A14600C14600E2403800D43FC02800869
:100E010043FC04800343FC06EB700343FC0843FCF2
:020E11000122BC
:0A1519008FFFE5FE30E2FBAFFF227A
:100F710075BCF0D2CE43A601EF14600A14600C14C4
:100F8100600E2403800D43BC02800843BC0480032F
:100F910043BC06ED5401F433333354F842BC43BC33
:0F0FA10001E5BE30E00890005EE5BFF080F3226E
:07153D001215681212C22210
:10115700900059E045BEF0E0FF30E5089000587474
:1011670001F08009EF30E405E4900058F0EF54CF28
:0A117700900059F0900058E0FF22AC
:1012FC00900059E045BEF0E030E0037F01227F0012
:01130C0022BE
:1012C200900059E020E00545BEF080F4900059E01E
:0612D20054FEF0AFBF2244
:031568008FBF2210
:0A1523008FE7E5E630E1FBAFE722B9
:10134E00EF6009E5A3448054F7F5A32253A3772257
:10130D00EF5401C4333354C0FFE5A354B74FF5A3D5
:01131D0022AD
:0F13AB00EF5403C454F0FFE5A354C74FF5A3223A
:0B148C00E5AD30E3037F02227F012268
:0C145300EF5407FFE5A354F04FF5A3226F
:10135E00E5AD5480D3940040047F0180027F0022CB
:10136E00E5AD5440D3940040047F0180027F0022FB
:0C145F00EF5407FFE5AD54F84FF5AD2247
:100B820002065CE493A3F8E493A34003F68001F227
:100B920008DFF48029E493A3F85407240CC8C33374
:100BA200C4540F4420C8834004F456800146F6DF43
:100BB200E4800B0102040810204080900CFAE47ECD
:100BC200019360BCA3FF543F30E509541FFEE49338
:100BD200A360010ECF54C025E060A840B8E493A3FF
:100BE200FAE493A3F8E493A3C8C582C8CAC583CA2A
:100BF200F0A3C8C582C8CAC583CADFE9DEE780BEE2
:010D6400008E
:10006600BB010689828A83E0225002E722BBFE0298
:09007600E32289828A83E49322CB
:10007F00BB010CE58229F582E5833AF583E0225036
:10008F0006E92582F8E622BBFE06E92582F8E22280
:0D009F00E58229F582E5833AF583E493229A
:1000AC00BB010689828A83F0225002F722BBFE0133
:0200BC00F3222D
:1000BE00C5F0F8A3E028F0C5F0F8E58215827002CD
:0600CE001583E038F0226A
:1000D400BB0110E58229F582E5833AF583E0F5F06A
:1000E400A3E0225009E92582F886F008E622BBFE47
:1000F4000AE92582F8E2F5F008E222E5832AF5838D
:08010400E993F5F0A3E9932251
:0C010C00ECF0A3EDF0A3EEF0A3EFF02266
:10011800A8828583F0D083D08212012F12012F127A
:10012800012F12012FE473E493A3C583C5F0C5839F
:10013800C8C582C8F0A3C583C5F0C583C8C582C831
:010148002294
:10014900E709F608DFFA8046E709F208DFFA803E98
:1001590088828C83E709F0A3DFFA8032E309F60885
:10016900DFFA806EE309F208DFFA806688828C8301
:10017900E309F0A3DFFA805A89828A83E0A3F608AB
:10018900DFFA804E89828A83E0A3F208DFFA80428F
:1001990080D280FA80C680D4805580F28029801070
:1001A90080A680EA809A80A880DA80E280CA8029C5
:1001B90088848C8589828A83E493A30592F0A315A8
:1001C90092DFF5DEF3800B89828A83E493A3F60834
:1001D900DFF9ECFAA9F0EDFB2288848C8589828A03
:1001E90083E0A30592F0A31592DFF6DEF480E3899C
:1001F900828A83E493A3F208DFF980D688F0EF605E
:10020900010E4E60CD88F0ED2402B4040050C3F510
:1002190082EB2402B4040050B923234582239001C0
:020229009973C7
:10022B00E849701C8FE98EEA8DEB8CEC8BED8AEE36
:10023B0012032DAFE9AEEAADEBACECABEDAAEE22BF
:10024B008BE98AEA89EB88EC75EF00E8CCF81203AE
:10025B002F85EB8285EC8385EFF08FE98EEA8DEBB2
:10026B0088EC8582ED8583EE00000000000053F0E2
:10027B001F7410C395F04420F5EF120330EECAFE45
:10028B00E985E98285EA838582E9F5ED8583EA8C48
:10029B00EE120332CDCFCBCFC395E9C895EA858259
:1002AB00E98FED8583EA8EEE120332F992F0C3EB00
:1002BB0095E9FBEA95EAFAE895EBC995ECF872F04B
:1002CB0050151582E582B4FF021583EF2BFBEE3A36
:0F02DB00FAED39F9EC38F8AF82AE83E4FDFC227E
:1002EA008DE98BED8CEA8AEE120333ADE9ACEAE5CF
:1002FA00EBE5EC8FE989ED8EEA88EE120333E5E946
:10030A002DFDE5EA3CFCE5EBE5EC8FE98BED8EEAA9
:10031A008AEE120333AFE9AEEAE5EB2DFDE5EC3CDC
:02032A00FC22B3
:0C032C00000000000000000000000022A3
:00000001FF
