:03000000020BA34D
:0C0BA300787FE4F6D8FD758171020BEA42
:100D2C0001080042002E01F442002B0384410030E4
:090D3C000041002D0041003100CE
:10065C00E4900000F0F5217593BF04F0900000E0E9
:10066C00FFD3940E500B12125C900000E004F0804B
:10067C00EB7F0E12125C12107412115912129C752F
:10068C00261EE4F527121424E4F508E52760FCD2B5
:10069C0094900030E004F0E0547FFF90002AE02FAB
:1006AC00FFE52164015401FE75F01FA42446F8A651
:1006BC0007EE75F01FA42428F9E4FAFB7D1F121431
:1006CC008DC2947525019000017414F0D2E890004D
:1006DC0001E0FF14F0EF70F6C2E8E52570FCE508C8
:1006EC007003020773E4F508FB7A007909F5188AA0
:1006FC0019891A12006664017030AB18E51A2401CE
:10070C00F9E43519FA781B7C007D007E007F061217
:10071C000205E51D7009C2ADAF1B12125C800BD235
:10072C00AD7B007A00791B12052FAB18AA19A91AF8
:10073C00120066B40231E92407F9E43AFA78667CCF
:10074C00007D007E007F0812020590002EE568F007
:10075C00A3E569F090002BE566F0A3E567F07B005C
:0D076C007A0079661212BBE4F527020697A9
:0300630002096D22
:10096D00C0E0C0F0C083C082C085C084C0925392E5
:10097D00FEC0D075D000C000C001C002C003C004CD
:10098D00C005C006C007AB22AA23A924E5D41200D6
:10099D00AC74012524F524E43523F523AB22FAA903
:1009AD0024E5D51200AC74012524F524E43523F596
:1009BD0023AFD4EFFEADD57C00E42DFFEC3EFEC39E
:1009CD0090002FE09F90002EE09E90002D5005741A
:1009DD0001F08006E4F0900031F090002DE06020F1
:1009ED00900031E0701AC390002CE09F90002BE036
:1009FD009E500D1211AE90002DE4F090003104F0D8
:100A0D0015261526E526701C75261E53210163211A
:100A1D0001E52175F01FA42428F9E4F522F52389B9
:100A2D0024752701D007D006D005D004D003D002FD
:100A3D00D001D000D0D0D092D084D085D082D083B8
:050A4D00D0F0D0E03202
:10115900E4FF12133A7F0112140C7F011214187F55
:10116900011213797F011213A57F031213887F01DE
:0B1179001213B37F0312134AD2BC22F2
:10107400D2EAD2B97F011210D07F011210147F017D
:10108400120FE27F011213977F7D1213057DFA7C04
:0E109400007F1412121AE4FF1210A2D2AF2233
:03004B00020CB2F2
:100CB200C0E0C0F0C083C082C085C084C09253929D
:100CC200FEC0D075D000C000C001C002C003C00485
:100CD200C005C006C0071213E8EF24F0602024F01C
:100CE200601A24C07023750801121465EF700AFBA4
:100CF2007A00790912151080F07525008008121407
:100D0200BFA295B39295752500D007D006D005D025
:100D120004D003D002D001D000D0D0D092D084D061
:0A0D220085D082D083D0F0D0E032FB
:0B1430007B01E4FDFF120DF37F0022A2
:10000E00AD07AC06EC5403FBED90005CF0AF0312B1
:0D001E0014D390005CE0FF1214D37F002289
:100D450042001B0000420024000041002800420030
:100D550022019041002705026E000001710041004B
:100D650021084100260A4100290A41001E0A4100C6
:100D75001F0A4100190341001A03017000410020B8
:090D85000041002A0041001D009C
:1012BB009000041200D4FF900022E5F0F0A3EFF0B1
:0B12CB0090000612007F900027F02228
:1011AE00D3E56F9400E56E94004008D5710B1214D0
:1011BE00E78006900027E0F571900022E0F56EA31F
:0411CE00E0F56F22B7
:0914E700900027E0F5710211D21A
:1011D20090002A7480F0E4900020F090001EE0A3BA
:1011E200F0900026E0900029F0900019E0A3F0D2E0
:0411F200C8D2AD2290
:0A145100E490002AF0C2C8C2AD22E8
:10052F00900002EBF0A3EAF0A3E9F0A31201180088
:10053F00000000900002E0FBA3E0FAA3E0F99000B6
:10054F000212007FFBE4FAF9F87F407E427D0FFC38
:10055F0012022B90000912010CE47F02FEFDFC90A9
:10056F000009E0F8A3E0F9A3E0FAA3E0FB1202EA26
:10057F00E47B03FAF9F812022B90000512010C909C
:10058F000002E0FBA3E0FAA3E0F990000112007F64
:10059F00FFE4FCFDFE900005E0F8A3E0F9A3E0FA0C
:1005AF00A3E0FB1202EAE47B64FAF9F812022B9043
:1005BF00001BEEF0A3EFF0900005A3A3E0FEA3E075
:1005CF00FF90001BE0FCA3E0FDC3EF9DFFEE9C90AE
:1005DF000024F0A3EFF0EDAE047803CEC313CE13D7
:1005EF00D8F9FFC374109FFFE49EFEEF6402FF90E3
:1005FF00001BEEF0A3EFF0900024E0FEA3E07803E1
:10060F00CEC313CE13D8F9FFC374109FFFE49EFE21
:10061F00EF6402FF900024EEF0A3EFF0900002E0F1
:10062F00FBA3E0FAA3E0F990000412007F90001EF4
:10063F00F090000312007F900026F090000512004A
:0D064F007F900019F0120066F5700211D2C4
:10129C0075CAF075CBF075C102D2CFD2CCD2C8D200
:0F12AC00AD758901758C7F758AFFD28CD2A9220E
:03000B000212D608
:1012D600C0E0758C7F758AFFE56F456E6008E56F27
:0912E600156F7002156ED0E032A4
:03002B0002088147
:10088100C0E0C0F0C083C082C085C084C0925392D2
:10089100FEC0D075D000C000C001C002C003C004BA
:1008A100C005C006C007900021E014F0E06003021B
:1008B100094A900028E06019900024E0FEA3E0F5C9
:1008C100CAEEF5CB900020E07072AF7012125C801E
:1008D1006B90001BE0FEA3E0F5CAEEF5CBE4FF123E
:1008E100125C900020E0702F900029E014F0E0707D
:1008F1004B900026E0900029F090001EE0600890E7
:1009010000207401F08035900019E0FF602EA3E013
:1009110014F0E07027802090001FE014F0E0701CBC
:1009210090001EE0A3F0A3E4F0900019E0FF600C3A
:10093100A3E014F0E07005EFF0121451900021745F
:1009410008F0900028E06401F0C2C6D007D006D0BC
:1009510005D004D003D002D001D000D0D0D092D0A5
:0C09610084D085D082D083D0F0D0E0326A
:10125C00EFD3940E40027F0EEF25E0FFC2867E0195
:10126C00EEC39F500A0000A286B392860E80F12234
:1010A200900002EFF0E4FF120032900003EFF090A4
:1010B2000002E0B40107A3E04401F08007900003BE
:0E10C200E054FEF0900003E0FDE4FF02127C1B
:1010D000900002EFF0E4FF120032900003EFF09076
:1010E0000002E0B40107A3E04402F080079000038F
:0E10F000E054FDF0900003E0FDE4FF02127CEE
:100E950090004EEFF0E4FF12003290004FEFF0901B
:100EA500004EE014601014601A2402702190004F67
:100EB500E054F7F0801890004FE04408F0E054FB50
:100EC500F0800B90004FE04408F0E04404F09000FF
:080ED5004FE0FDE4FF02127C76
:100C2F00900048EFF0A3EDF0E4FF12003290004A7D
:100C3F00EFF0900048E024FB602414603F24027022
:100C4F0058900049E060047F0080027F01EF54015B
:100C5F00C454F0FF90004AE054EF4FF0803B9000F7
:100C6F0049E060047F0080027F01EF5401C43354D8
:100C7F00E0FF90004AE054DF4FF0801D900049E004
:100C8F0060047F0080027F01EF5401C4333354C0EE
:100C9F00FF90004AE054BF4FF090004AE0FDE4FFA0
:030CAF0002127CB2
:0C13E8007D707F0712127CEF5470FF2212
:1011F6007D707F0712127CEF547090005DF0E0FF67
:10120600C0077F07120032EF540FFED0E04EFF906A
:04121600005DF02265
:101318007401A807088002C333D8FCFD7F070212B6
:011328007C48
:080003001214C9EF5470FF2232
:100B110090003CEFF0A3EDF07F0212003290003E16
:100B2100EFF07F0112003290003FEFF090003CE0C7
:100B3100FF24FA50062407603C80537401A807087B
:100B41008002C333D8FCFD90003EE04DF090003DA3
:100B5100E0600890003FE04DF0803390003CE0FF02
:100B61007401A807088002C333D8FCF4FF90003F4A
:100B7100E05FF0801990003E743FF090003DE0602E
:100B81000890003F743FF08005E490003FF0900032
:100B91003EE0FD7F0212127C90003FE0FD7F0102EA
:020BA100127CC4
:100D970090004BEFF07F0212003290004CEFF07F93
:100DA7000112003290004DEFF090004BE0FF24FA63
:100DB70050062407601B80207401A807088002C31F
:100DC70033D8FCF4FD90004CE05DF0A3E05DF080CB
:100DD70007E490004CF0A3F090004CE0FD7F021276
:0C0DE700127C90004DE0FD7F0102127CA8
:100E4500900041EBF0A3EAF0A3E9F0900040EFF049
:100E550014600A24FB502160042406703212145BCE
:100E6500900006EFF0900040E0242AFFA3E0FBA3EA
:100E7500E0FAA3E0F9020779900040E0240AFFA315
:100E8500E0FBA3E0FAA3E0F9120066FD12127C2252
:100EDD00900045EBF0A3EAF0A3E9F0900044EFF0A9
:100EED0014600824FB600424067011900044E0FF98
:100EFD00A3E0FBA3E0FAA3E0F9020338900044E07D
:100F0D00240AFF120032900045E0FBA3E0FAA3E0B3
:080F1D00F9EF1200AC7F012284
:10121A00AB07EC540FC454F0FF900002E0540F4F98
:10122A00F0EB540FFFE054F04FF0E0FD7F040212A0
:01123A007C37
:10004E00EF24FE5403FF90005EE054FC4FF0E0FD01
:05005E007F0302127C8B
:0A145B007F03120032EF2402FF228B
:0714F000EF2411FF02127C42
:100A5200900032EFF07F02120032900033EFF07F0D
:100A620001120032900034EFF0900032E014602066
:100A72001460311460421460551460642405707A65
:100A8200900033E05401900035F0900034E0806231
:100A9200900033E0C3135401900035F0900034E02D
:100AA200C313804E900033E013135401900035F0CD
:100AB200900034E01313803A900033E01313135480
:100AC20001900035F0900034E0131313802490005D
:100AD20033E0C45401900035F0900034E0C4801239
:100AE200900033E0C4135401900035F0900034E0DC
:100AF200C4135401900036F08007E4900035F0A34F
:0F0B0200F0900036E025E0FF900035E02FFF2255
:0614FE007F0812003222FB
:0D13C1007F08120032EF54F0C4540FFF22D9
:100F2500EF1460141460151460161460171460181B
:100F3500240570207F1180127F12800E7F13800A96
:100F45007F1480067F1580027F1612003290005FA5
:0F0F5500EFF08005E490005FF090005FE0FF2276
:10130500EF547FFF900002E054804FF0E0FD7F0531
:0313150002127C45
:10123B0090005012002E900051EFF0900050E054AF
:10124B000325E0FFA3E054F94FF0E0FD7F06021207
:01125B007C16
:100F640090005212002E900053EFF0900052E06077
:100F74000C24FE7015900053E0442080069000532A
:100F8400E054DFF0E054F7F0800B900053E054DFBE
:0F0F9400F0E04408F0900053E0FD7F0602127C6D
:0A1465007F17120032EF5401FF223E
:0C13F4007F17120032EFC3135401FF22D8
:0B143B007F17120032EFC45401FF22A3
:0C1400007F17120032EFC4135401FF22CA
:0D13CE007F17120032EF5430C4540FFF227D
:0A146F007F17120032EF5403FF2232
:061504007F1712003222E5
:0A1479007F08120032EF540FFF222B
:0A1483007F09120032EF5401FF222E
:01004A002293
:0E139700EF543F900002F0E0FD7F1C02127C3C
:100FE200900002EFF07F1D120032900003EFF090AC
:100FF2000002E060047F0180027F00EF540125E0DF
:1010020025E0FF900003E054FB4FF0E0FD7F1D025E
:02101200127C4E
:10101400900002EFF07F1D120032900003EFF09079
:101024000002E060047F0180027F00EF540125E0AC
:10103400FF900003E054FD4FF0E0FD7F1D02127CA1
:1010FE00900054EFF07F1D120032900055EFF090EB
:10110E000054E060047F0180027F00EF5401FF90E5
:0E111E000055E054FE4FF0E0FD7F1D02127CF4
:0A148D00900006EDF07FA002077941
:0A149700900006EDF07FB002077927
:0F136A00EF44A8FF90003BE0900006F0020779E7
:06150A007F601200322296
:061510007F0812033822DF
:0A14A1001214C9EF540EC313FF220A
:0A14AB00C2E97FE31214DDD2E9224A
:0D13DB00121504EF5440C413135403FF22F5
:0A14B500C2E97FE21214DDD2E92241
:0A14BF00C2E97FE11214DDD2E92238
:0A14C900C2E97FFF1214DDD2E92210
:10112C0090005612002E900057EFF0900056E060A1
:10113C00047F0180027F00EF5401C454F0FF900043
:0D114C0057E054EF4FF0E0FD7F0602127CEB
:1010440090005812002E900059EFF0900058E06084
:10105400047F0180027F00EF5401C4333333548092
:10106400FF900059E0547F4FF0E0FD7F0602127CB0
:04002E00EFF07F066A
:10003200C2E98FE7E5E630E1FBAFE7E4F5E7E5E6A5
:0800420030E1FBAFE7D2E92237
:10127C00C2E9EF2420F5E7E5E630E1FBAFE7AE0588
:10128C008EE7E5E630E1FB90000DE5E7F0D2E922D0
:1003380090000EEBF0A3EAF0A3E9F090000DEFF0C7
:100348009000157401F090000EE0900013F0EF1487
:10035800600C24FB600824FE601924087035121410
:100368005B900011EFF0A3F0C2E990000DE0240AC1
:10037800FF801B1214A190000DEFF0C394075013D7
:1003880012150A900011EFF0A3F0C2E97F61121470
:10039800DD8009E4900012F0900011F0900013E065
:1003A800FF704B90000EA3A3E0900016F0E4F5E771
:1003B800900015E07011900014E0FE900016E0F82F
:1003C800A606E004F08005E4900015F0E5E630E1CB
:1003D800FB900014E5E7F0900011E014F070CE9067
:1003E8000014E0FE900016E0F8A606020520EF646F
:1003F80001706990000EA3E0FAA3E0FF900016EAEE
:10040800F0A3EFF0E4F5E7900015E07022900014F7
:10041800E0FF900016E0FCA3E0F5828C83EFF090FB
:100428000017E004F0700D900016E004F08005E479
:10043800900015F0E5E630E1FB900014E5E7F09058
:100448000011E014F070BD900014E0FF900016E079
:10045800FCA3E0F5828C83EFF0020520900013E006
:1004680064FE704A90000EA3A3E0900016F0E4F535
:10047800E7900015E07011900014E0FF900016E07E
:10048800F8EFF2E004F08005E4900015F0E5E630BE
:10049800E1FB900014E5E7F0900011E014F070CE55
:1004A800900014E0FF900016E0F8EFF2806A9000E8
:1004B8000EE0F9A3E0FAA3E0900016C9F0A3EAF071
:1004C800A3E9F0E4F5E7900015E07020900014E04F
:1004D800FF900016E0FBA3E0FAA3E0F9EF1200ACEE
:1004E800900017E475F0011200BE8005E490001535
:1004F800F0E5E630E1FB900014E5E7F0900011E04C
:1005080014F070BF900014E0FF900016E0FBA3E029
:10051800FAA3E0F9EF1200ACD2E990000DE0FE90EA
:070528000012E0FDEDFF22CF
:10077900900003EBF0A3EAF0A3E9F0900003E0FD99
:10078900C2E98FE7ED7029A3A3E0900008F090007B
:1007990008E0F8E6FEE004F0E5E630E1FB9000074A
:1007A900E5E7F08EE7900006E014F070E1020873C7
:1007B900ED64017042900003A3E0FBA3E090000800
:1007C900CBF0A3EBF0900008E0FEA3E0F5828E8366
:1007D900E0FE900009E004F07006900008E004F0E3
:1007E900E5E630E1FB900007E5E7F08EE7900006CB
:1007F900E014F070D08073ED64FE702B900003A3B9
:10080900A3E0900008F0900008E0F8E2FEE004F0B0
:10081900E5E630E1FB900007E5E7F08EE79000069A
:10082900E014F070E18043900003E0F9A3E0FAA33B
:10083900E0900008C9F0A3EAF0A3E9F0900008E00D
:10084900FBA3E0FAA3E0F9120066FE900009E47543
:10085900F0011200BEE5E630E1FB900007E5E7F0A4
:100869008EE7900006E014F070D2E5E630E1FB90E7
:080879000007E5E7F0D2E922D7
:10133A00EF25E025E0543CFFE5D354C34FF5D32213
:0C140C00EF5403FFE5D354FC4FF5D3224E
:0F137900EFC4333354C0FFE5D2543F4FF5D222B7
:0E13A500EFC4335420FFE5D254DF4FF5D222BF
:10134A00EF25E025E0541CFFE5D254E34FF5D22205
:10135A00EF25E025E0541CFFE5D254E34FF5D222F5
:0C141800EF5403FFE5D254FC4FF5D22244
:0F138800EFC4333354C0FFE5D1543F4FF5D122AA
:0E13B300EFC4335420FFE5D154DF4FF5D122B3
:0C1424007F0143D380AE071FEE70FA2258
:03151C00AFD52226
:03151F00AFD42224
:06151600E5D35440FF2262
:0B144600E5D15418131313541FFF22AC
:080D8E0041005B0041005A0125
:100DF300E4F5FCEF14600F14601114601314601514
:100E030024047016801743FC10801243FC20800DCD
:100E130043FC30800843FC40800343FC50ED1460E6
:100E23000A14600C14600E2403800D43FC02800836
:100E330043FC04800343FC06EB700343FC0843FCC0
:020E430001228A
:0A14D3008FFFE5FE30E2FBAFFF22C1
:100FA30075BCF0D2CE43A601EF14600A14600C1492
:100FB300600E2403800D43BC02800843BC048003FD
:100FC30043BC06ED5401F433333354F842BC43BC01
:0F0FD30001E5BE30E008900060E5BFF080F3223A
:0714F7001215221212EF2270
:1011840090005BE045BEF0E0FF30E50890005A7443
:1011940001F08009EF30E405E490005AF0EF54CFF9
:0A11A40090005BF090005AE0FF227B
:1013290090005BE045BEF0E030E0037F01227F00E2
:011339002291
:1012EF0090005BE020E00545BEF080F490005BE0ED
:0612FF0054FEF0AFBF2217
:031522008FBF2256
:0A14DD008FE7E5E630E1FBAFE72200
:100BAF0002065CE493A3F8E493A34003F68001F2FA
:100BBF0008DFF48029E493A3F85407240CC8C33347
:100BCF00C4540F4420C8834004F456800146F6DF16
:100BDF00E4800B0102040810204080900D2CE47E6D
:100BEF00019360BCA3FF543F30E509541FFEE4930B
:100BFF00A360010ECF54C025E060A840B8E493A3D2
:100C0F00FAE493A3F8E493A3C8C582C8CAC583CAFC
:100C1F00F0A3C8C582C8CAC583CADFE9DEE780BEB4
:010D9600005C
:10006600BB010689828A83E0225002E722BBFE0298
:09007600E32289828A83E49322CB
:10007F00BB010CE58229F582E5833AF583E0225036
:10008F0006E92582F8E622BBFE06E92582F8E22280
:0D009F00E58229F582E5833AF583E493229A
:1000AC00BB010689828A83F0225002F722BBFE0133
:0200BC00F3222D
:1000BE00C5F0F8A3E028F0C5F0F8E58215827002CD
:0600CE001583E038F0226A
:1000D400BB0110E58229F582E5833AF583E0F5F06A
:1000E400A3E0225009E92582F886F008E622BBFE47
:1000F4000AE92582F8E2F5F008E222E5832AF5838D
:08010400E993F5F0A3E9932251
:0C010C00ECF0A3EDF0A3EEF0A3EFF02266
:10011800A8828583F0D083D08212012F12012F127A
:10012800012F12012FE473E493A3C583C5F0C5839F
:10013800C8C582C8F0A3C583C5F0C583C8C582C831
:010148002294
:10014900E709F608DFFA8046E709F208DFFA803E98
:1001590088828C83E709F0A3DFFA8032E309F60885
:10016900DFFA806EE309F208DFFA806688828C8301
:10017900E309F0A3DFFA805A89828A83E0A3F608AB
:10018900DFFA804E89828A83E0A3F208DFFA80428F
:1001990080D280FA80C680D4805580F28029801070
:1001A90080A680EA809A80A880DA80E280CA8029C5
:1001B90088848C8589828A83E493A30592F0A315A8
:1001C90092DFF5DEF3800B89828A83E493A3F60834
:1001D900DFF9ECFAA9F0EDFB2288848C8589828A03
:1001E90083E0A30592F0A31592DFF6DEF480E3899C
:1001F900828A83E493A3F208DFF980D688F0EF605E
:10020900010E4E60CD88F0ED2402B4040050C3F510
:1002190082EB2402B4040050B923234582239001C0
:020229009973C7
:10022B00E849701C8FE98EEA8DEB8CEC8BED8AEE36
:10023B0012032DAFE9AEEAADEBACECABEDAAEE22BF
:10024B008BE98AEA89EB88EC75EF00E8CCF81203AE
:10025B002F85EB8285EC8385EFF08FE98EEA8DEBB2
:10026B0088EC8582ED8583EE00000000000053F0E2
:10027B001F7410C395F04420F5EF120330EECAFE45
:10028B00E985E98285EA838582E9F5ED8583EA8C48
:10029B00EE120332CDCFCBCFC395E9C895EA858259
:1002AB00E98FED8583EA8EEE120332F992F0C3EB00
:1002BB0095E9FBEA95EAFAE895EBC995ECF872F04B
:1002CB0050151582E582B4FF021583EF2BFBEE3A36
:0F02DB00FAED39F9EC38F8AF82AE83E4FDFC227E
:1002EA008DE98BED8CEA8AEE120333ADE9ACEAE5CF
:1002FA00EBE5EC8FE989ED8EEA88EE120333E5E946
:10030A002DFDE5EA3CFCE5EBE5EC8FE98BED8EEAA9
:10031A008AEE120333AFE9AEEAE5EB2DFDE5EC3CDC
:02032A00FC22B3
:0C032C00000000000000000000000022A3
:00000001FF
