:03000000020DEB03
:100DEB00787FE4F6D8FD9080007FFF7E08E4F0A3C7
:100DFB00DFFCDEFA78007FFFE4F208DFFC75815D33
:030E0B00020E498B
:061C820050696E672100AD
:101ACD00011300011800011500011600418070007E
:100F3100E4F559F5A375940BC29075E610D292D2DF
:100F4100B990C7DDE04401F090804B74FFF0A374C9
:100F51001BF0A374BAF0A374FFF0A3741BF0A37485
:100F6100B0F0A374FFF0A37419F0A37402F07BFF37
:100F71007A1479377F011208557BFF7A1979F97D47
:100F8100207F82120A7E7BFF7A15790B7D207F02FA
:100F9100120A7E9080757401F0A3F0E4F517D2AFC8
:100FA100121B287518207558AA7538AAE5591460BE
:100FB10011146015146012240370F11216FD8F597B
:100FC10080EA12132B8F5980E3121C7C8F5980DC2D
:10132B0012005E8F5AE4908047F0E55AB401037FB8
:10133B000222E55AB402037F0322908077E0601209
:10134B00E4F0FB7A00790890804C740BF0E4FF1208
:10135B001AFEE5166050E4F516D2857EC67F007C3A
:10136B00C77DB9E4908047F0908047E0F9E513C45E
:10137B003354E0241929F8E6FB8F828E83EF29F58D
:10138B0082E43EF583EBF0908047E004F0E0B4207C
:10139B00D78D828C837420F0E5136005E4F5138000
:0813AB0003751301C2857F01E7
:0113B3002217
:1016FD0012005EBF01037F022212005EBF02037F54
:10170D0003227F011217957F011217327F01121BE1
:10171D000D7F7D121ABA7F011217F57F0112182362
:05172D00D2907F0122B3
:061C7C00121C6E7F012224
:030053000218ACE4
:1018AC00C0E0C0D075D000C000E5187009751820D4
:1018BC006313017516011518E513C43354E024198C
:0C18CC002518F8A6BDD000D0D0D0E03226
:03004B00020E8E14
:100E8E00C0E0C0F0C083C082C0D075D000C000C02A
:0D0E9E0001C002C003C004C005C006C007AB
:100EAB00E513C43354E02419908056F0755B00D2DF
:100EBB0085C29175E527C2C030C0FDAFE575E57001
:100ECB00C2C030C0FDD291EF5470FF30E63B121C14
:100EDB0014EFC39407500E121CAC8F5BC2917F6151
:100EEB00121BC48003755B00AF5B155BEF60157560
:100EFB00E500C2C030C0FD908056E0FF04F0A807AB
:0B0F0B00A6E580E4D291751601C285B6
:100F1600D007D006D005D004D003D002D001D0002F
:0B0F2600D0D0D082D083D0F0D0E032D9
:0D1B1B0075E610D2B9D2927F011217F522A3
:071C6E00121A7CE4F51722B5
:03005E00AF1722B7
:0C1B2800121C9A908047EFF0E0B404F427
:011B3400228E
:1014370090FFFD120294EBF0A3EAF0A3E9F090FF0E
:04144700F912029400
:10144B00855C83855D82A3A882AC837D017BFF7A5B
:10145B001C79827E007F061201367B01855C8385B9
:10146B005D82A3A982AA83C003C002C00190000AB7
:10147B001202B8E0FBA3E0FAA3E0F91201E9900035
:10148B000D1202B8E0FBA3E0FAA3E0F9E475F00655
:0E149B001201CA855C83855D827404F0E0FF57
:0614A90090001002029405
:1019020090FFFF120294EFF075D901855C83855D2B
:1019120082E0B4010875A52A751701800675A50A2B
:0919220075170290000102029405
:0A1BB0009080757401F0E4F517222F
:0A1BBA009080757401F0E4F5172225
:1019F90090FFFD120294EBF0A3EAF0A3E9F09080C6
:0C1A0900757401F07F60900006020294EA
:10150B0090FFFE120294ECF0A3EDF090FFFE12029E
:06151B0094EEF0A3EFF0D6
:1015210090806E74C5F0A374C0F09080777401F060
:10153100E4908070F0908070E0FF90806EE0FCA3FA
:10154100E02FF582E43CF583E0FE74082FF8A6064F
:0C155100908070E004F0E0B40BDB7FFF42
:06155D009000040202945C
:100FD10012010002FFFFFF2015190909010001029A
:100FE100000109022000010102E0320904000002AF
:100FF100FF00FF00070582024000060705020240CC
:1010010000062A034E006F0072006400690063004D
:101011002000530065006D00690063006F006E00E1
:1010210064007500630074006F0072002E034300BA
:101031004900440020005700690066006900200053
:10104100480065006100640073007400610067007E
:1010510065002000520058002000FF1003FF102DF2
:041061000403090477
:0D1B3500AB07ECF5ABEDF5ACAF038FAD22C7
:0A1B9A008FADAFABEFFEADACEDFF79
:011BA400221E
:081C4600E4FDFC7F0B021B35DD
:10192B00AE078D828C83E4FDFC7F0B121B35C2C589
:10193B00EEFD7F09121B35AE83AF82AD07AC067F80
:04194B000A021B353C
:061C88007F03121B9A22EB
:081C4E007F01121B9AEEFF2238
:061C8E0030C5FDC2C522B5
:0F1AEF00908099EEF0FCA3EFF0FD7F08021B350D
:0D1B4200908099E0FCA3E0FD7F08021B35B8
:101A31008D828C83AD07AC067F0D121B35AE83AF53
:0A1A410082AD07AC067F0C021B35D6
:04004E0075A4012272
:101A6500AEA3EE548FFEEF54704EA2AF92D5C2AF27
:061A7500F5A3A2D592AF1B
:011A7B002248
:0A1BC4008FE5C2C030C0FDAFE5227E
:10085500908048EBF0A3EAF0A3E9F090802374FFC1
:10086500F0A3740FF0A374D1F0A374FFF0A3740F79
:10087500F0A374E3F0A374FFF0A37410F0A3745B0A
:10088500F0A37404F0A314F0A37409F0A37404F0A6
:100895009080337402F0E4908030F0908046F090C0
:1008A5008031F0A3F0908048E0F9A3E0FAA3E0904E
:1008B5008034C9F0A3EAF0A3E9F090804BE0F9A3F6
:1008C500E0FAA3E0908037C9F0A3EAF0A3E9F0903D
:1008D500804EE0F9A3E0FAA3E090803AC9F0A3EADC
:1008E500F0A3E9F0908051E0F9A3E0FAA3E090804D
:1008F5003DC9F0A3EAF0A3E9F0EF601590C7D6E093
:100905004408F07F327E00121AA690C7D6E054F74D
:10091500F0D2BBD2BC90C7AE741DF090C7AC7401C9
:10092500F090C7A9741FF090C7AD7401F090C7AAE5
:10093500741FF090C7817410F0A37420F0A3743075
:10094500F0A37440F0A37450F090C78874C0F0A36E
:100955007410F0A37420F0A37430F0A37440F0A3D6
:100965007450F090C7DE7401F0A3F0E4A3F0A3F097
:01097500225F
:10000300EF547F1425E0FEEF30E70BEE7E0024B6BD
:10001300F9EE34C7800BAF067E0074C62FF9EE34B9
:10002300C7AF0190805EF0A3EFF0ED90805EB40166
:100033000CE0FEA3E0F5828E837401F022E0FEA3C0
:07004300E0F5828E83E4F07A
:01004A002293
:061C940090C7DBE0FF2217
:0D0A7E00908047EBF0A3EAF0A3E9F0AC078D
:100A8B00EC547FFF14FE7401A807088002C333D80F
:100A9B00FC90804AF0EC30E759908047E0FBA3E0F4
:100AAB00FAA3E0F9EE75F003A42405F582E4348093
:100ABB00F583EBF0A3EAF0A3E9F0908047E0FBA30A
:100ACB00E0FAA3E04A4B90C7AC6014E0FF90804A79
:100ADB00E0FEEF4E90C7ACF090C7DEE04EF022E0A8
:100AEB00FF90804AE0F4FEEF5E90C7ACF090C7DE5B
:100AFB00806A908047E0FBA3E0FAA3E0F9EE75F083
:100B0B0003A42414F582E43480F583EBF0A3EAF01C
:100B1B00A3E9F0908047E0FBA3E0FAA3E04A4B90F7
:100B2B00C7AD6027E0FF90804AE0FEEF4E90C7AD67
:100B3B00F090C7DFE04EF0EC75F002A424C5F97419
:100B4B00C735F08982F58374FFF022E0FF90804A6D
:0F0B5B00E0F4FEEF5E90C7ADF090C7DFE05EF014
:010B6A002268
:101A7C00908030E030E10D75A0407F017E00121A9D
:051A8C00A6E4F5A02214
:031CB800D2A7228E
:061C9A00908033E0FF2200
:10106500908079EBF0A3EAF0A3E9F0908078EFF0B7
:10107500547F75F080A4FFC374009FF974C795F081
:10108500AF0190807EF0A3EFF0908078E0547F75FB
:10109500F002A424B5F974C735F0AF01908080F053
:1010A500A3EFF0E490807DF090807CE0FFA3E0FE6C
:1010B500C39F502C908079E0FBA3E0FAA3E0F98E62
:1010C50082758300120175FF90807EE0FCA3E02EFF
:1010D500F582E43CF583EFF090807DE004F080C874
:1010E50090807CE0FF908080E0FCA3E0F5828C831B
:0210F500EFF01A
:0110F70022D6
:081C560090C7D6E04408F0221B
:081C5E0090C7D6E054F7F02214
:0400560075D9012235
:10194F00908000EBF0A3EAF0A3E9F0A3EDF0908014
:10195F0023E0FBA3E0FAA3E0F990000712017590D2
:04196F008004F022DE
:10121700908003E0FD7021908046E0B4010890C7FC
:10122700B4E04410F0229080467401F0E490C7B512
:10123700F090C7B47402F022908004E0FFEDC39FE2
:101247005007908003E0FF8000E4FEEEC39F502329
:10125700908000E0FBA3E0FAA3E0F98E827583009B
:10126700120175FD74002EF582E434C7F583EDF0A5
:101277000E80D8908004E0FEEFC39E500690804613
:101287007401F090C7B5EFF0FD908001E48DF01286
:0912970001B4908003E0C39FF054
:0112A000222B
:1012A1007B017A80796190FFFD120294EBF0A3EA51
:1012B100F0A3E9F07B017A80795E90FFFD12029440
:1012C100EBF0A3EAF0A3E9F07B017A807940C00258
:1012D100908034A3E0FAA3E0F5828A83D00212025F
:1012E10092EF14603014603414603E24FE602604D2
:1012F100703190805EE0FBA3E0FAA3E0F9A3E0FF88
:10130100908045E0FEC39F5004AD068002AD0712F8
:10131100194F02121790C7B47402F02290C7C57416
:09132100FFF02290C7B47411F032
:01132A0022A0
:100C5400908033E0FF64037028908044E0600302D6
:100C64000D25908026E0FBA3E0FAA3E0F9900007AD
:100C74001201755440C41313540390C701F0020DBC
:100C840018EF64046003020D2590C701F0908040C2
:100C9400E0247F604014604024026003020D23902E
:100CA4008030E030E10890C7007402F08005E490E1
:100CB400C700F090C700E0FF908026E0FBA3E0FAB5
:100CC400A3E0F99000071201755440C413135403B0
:100CD400FEEF4E803FE4803C908044E030E70D54CA
:100CE4007F75F002A424B4F974C7800F908044E0A7
:100CF400547F75F002A424C4F974C735F0AF019091
:100D0400805EF0A3EFF090805EE0FEA3E0F5828EBB
:100D140083E0540190C700F090C7B57402F02280BC
:070D24000090C7B47411F048
:010D2B0022A5
:100B6B00908042E024FE603014604B24FA40030274
:100B7B000C4924086003020C50908023E0FBA3E097
:100B8B00FAA3E0F9908045E0FFC394125005AD073E
:100B9B00020C437D12020C43908026E0FBA3E0FA8B
:100BAB00A3E0F9908045E0FFC394205004AD07808B
:100BBB00027D20020C43908043E0FC70187B017A8D
:100BCB0080792C908045E0FFC394045004AD0780DE
:100BDB00027D048063EC14C394025062908029E080
:100BEB00FBA3E0FAA3E0F9908043E0FF75F003A4C8
:100BFB0024FDF582E5F034FFF583120238C003C003
:100C0B0002C001908029E0FBA3E0FAA3E0F9EF1406
:100C1B0075F003A4F58285F08312023812015CFF94
:100C2B00908045E0FEC39F5004AD06800512015C29
:100C3B00FFFDD001D002D00312194F02121790C73B
:090C4B00B47411F0221212A1226E
:1006ED0090C7E8E0908040F090C7E9E0908041F03D
:1006FD0090C7EAE0908043F090C7EBE0908042F025
:10070D0090C7ECE0908044F090C7EEE0908045F00B
:10071D0090C7EFE0D39400400690804574FFF090B1
:10072D008040E05460600302082FA3E0B40B00404A
:10073D000302082D900748F828287302076C02075A
:10074D006F02082D02076F02082D0207C00207690C
:10075D0002082D0207CC0207E902081E020B6B02EC
:10076D000C54908040E024FE60242402704290805E
:10077D0043E0B40116908041E0908030B40106E072
:10078D0054FDF0806CE04402F0806602084E9080CB
:10079D0043E07019908041E0908044B40106E0FF81
:1007AD00E4FD8004E0FF7D01120003804402084E49
:1007BD0002084E9080337403F0E4908031F0229063
:1007CD008033E024FC600E047010E490C700F090BC
:1007DD00C7B504F022908031803A8065908043E067
:1007ED001460150470299080337403F0E490803107
:1007FD00F090C7B47402F0229080337404F09080AE
:10080D0030E04401F0A37401F090C7B404F02280ED
:10081D0030908032E090C700F090C7B57401F0229F
:10082D00801F908040E0FF5460FEBE2014908045F4
:10083D00E0600BEF20E70790C7C574FFF0220212AE
:08084D00A190C7B47411F02260
:1016C100E4FD908030E054FBF0908033E0B40408F6
:1016D100908030E030E1010D9080337405F090800E
:1016E1003DE0FBA3E0FAA3E04A4B600FAF05908019
:0B16F1003DA3A3E0F5828A8312029261
:0116FC0022CB
:1018D8009080337402F0E4908031F0A3F09080306F
:1018E800F0908037E0FBA3E0FAA3E04A4B600A904F
:0A18F8008037A3A3E0F912028E224C
:03005B0002118A05
:10118A00C0E0C0F0C083C082C0D075D000C000C02B
:0D119A0001C002C003C004C005C006C007AC
:1011A70090C7D6E030E7297480F0908030E030E1D6
:1011B7002690C7D6E04402F00000E054FD4401F059
:1011C7007F077E00121AA690C7D6E054FEF080076C
:1011D700908030E04404F0908030E090803330E03D
:1011E700057404F080037402F090803AA3E0FAA338
:0511F700E0F912028E78
:1011FC00D007D006D005D004D003D002D001D00047
:0B120C00D0D0D082D083D0F0D0E032F0
:10176400A9078B828A83E9B4FF0474FFF022E9306D
:10177400E7088D828C837401F022E95460FFBF6016
:10178400088D828C837402F022E97002F022E9F061
:011794002232
:030063000204FE96
:1004FE00C0E0C0F0C083C082C0D075D000C000C0C4
:0D050E0001C002C003C004C005C006C00744
:10051B0090C7A8E0120268055900056504056E082E
:10052B0005880C05941005A01805AC1C05BD20060C
:10053B00402405BD2806402C05BD3006403405BDC2
:10054B003806403C05BD40064044000006D290C72B
:10055B00AB7401F01206ED0206D290C7AB7402F039
:10056B000206D290C7AB7404F0908000E4F0A3F0C5
:10057B00A3F0A3F0A3F0908046F00206D290C7AB95
:10058B007408F01216C10206D290C7AB7410F012A9
:10059B0018D80206D290C7A97401F01212170206DE
:1005AB00D290C7AA7401F0908003E4F01212A1025A
:1005BB0006D290C7A8E024E8131313541F9080575A
:1005CB00F0E0FF7401A807088002C333D8FC90C782
:1005DB00A9F0EF547F75F002A424B4F974C735F079
:1005EB00AF01908058F0A3EFF0908057E0547F75E7
:1005FB00F080A4FFC374009FF974C795F0AF01900E
:10060B00805AF0A3EFF0908057E0547F75F002A46E
:10061B0024B5F974C735F0AF0190805CF0A3EFF00F
:10062B00908058E0FCA3E0FD90805CE0FAA3E0FB37
:10063B007F600206CF90C7A8E024E4131313541F66
:10064B00908057F0E0FF7401A807088002C333D8ED
:10065B00FC90C7AAF0EF547F75F002A424C4F97480
:10066B00C735F0AF01908058F0A3EFF0908057E0C2
:10067B0075F080A4FFC374C09FF974C695F0AF01E9
:10068B0090805AF0A3EFF0908057E075F002A47AB7
:10069B00C724C5F974C735F0AF0190805CF0A3EFA8
:1006AB00F090805CE0FCA3E0FD90805AE0FEA3E0BC
:1006BB00FF12150B908058E0FCA3E0FD90805CE0EE
:0706CB00FAA3E0FB12176423
:1006D200D007D006D005D004D003D002D001D0007C
:0B06E200D0D0D082D083D0F0D0E03226
:0517F500908047EFF0B9
:1017FA00E4FF121A19908048EFF0908047E0B40194
:10180A0007A3E04401F08007908048E054FEF0907E
:09181A008048E0FDE4FF0219D949
:05182300908047EFF08A
:10182800E4FF121A19908048EFF0908047E0B40165
:1018380007A3E04402F08007908048E054FDF09050
:091848008048E0FDE4FF0219D91B
:0515B30090809BEFF0A9
:1015B800E4FF121A1990809CEFF090809BE0146071
:1015C8001014601A2402702190809CE054F7F08077
:1015D8001890809CE04408F0E054FBF0800B908069
:1015E8009CE04408F0E04404F090809CE0FDE4FFB7
:0315F8000219D9FC
:0813B400908093EFF0A3EDF02F
:1013BC00E4FF121A19908095EFF0908093E024FBD3
:1013CC00602414603F24027058908094E060047F85
:1013DC000080027F01EF5401C454F0FF908095E02F
:1013EC0054EF4FF0803B908094E060047F008002CB
:1013FC007F01EF5401C43354E0FF908095E054DF3B
:10140C004FF0801D908094E060047F0080027F018B
:10141C00EF5401C4333354C0FF908095E054BF4F58
:0B142C00F0908095E0FDE4FF0219D96C
:0B1B76007D707F071219D9EF5470FF3B
:011B81002241
:101973007D707F071219D9EF54709080A7F0E0FFB4
:10198300C0077F07121A19EF540FFED0E04EFF90E5
:0319930080A7F03A
:01199600222E
:101ADE007401A807088002C333D8FCFD7F070219E2
:011AEE00D91E
:081C6600121C3CEF5470FF2238
:0810F800908087EFF0A3EDF0FA
:101100007F02121A19908089EFF07F01121A19904C
:10111000808AEFF0908087E0FF24FA500624076071
:101120003C80537401A807088002C333D8FCFD90AB
:101130008089E04DF0908088E0600890808AE04DE2
:10114000F08033908087E0FF7401A807088002C315
:1011500033D8FCF4FF90808AE05FF080199080899A
:10116000743FF0908088E0600890808A743FF0803F
:1011700005E490808AF0908089E0FD7F021219D901
:0A11800090808AE0FD7F010219D97A
:0514AF00908096EFF0B3
:1014B4007F02121A19908097EFF07F01121A199087
:1014C4008098EFF0908096E0FF24FA50062407609D
:1014D4001B80207401A807088002C333D8FCF4FDE4
:1014E400908097E05DF0A3E05DF08007E490809742
:1014F400F0A3F0908097E0FD7F021219D9908098B4
:07150400E0FD7F010219D98F
:1015630090808CEBF0A3EAF0A3E9F090808BEFF08E
:1015730014600A24FB5021600424067032121BCE2F
:10158300908051EFF090808BE0242AFFA3E0FBA32F
:10159300E0FAA3E0F902097690808BE0240AFFA326
:1015A300E0FBA3E0FAA3E0F912015CFD1219D922D2
:1015FB00908090EBF0A3EAF0A3E9F090808FEFF0EE
:10160B0014600824FB60042406701190808FE0FFA7
:10161B00A3E0FBA3E0FAA3E0F902030790808FE0BD
:10162B00240AFF121A19908090E0FBA3E0FAA3E0C2
:08163B00F9EF1201A27F012268
:02199700AB079C
:10199900EC540FC454F0FF9080A8E0540F4FF0EBC3
:0F19A900540FFFE054F04FF0E0FD7F040219D916
:101A9100EF24FE5403FF9080A9E054FC4FF0E0FDD9
:051AA1007F030219D9CA
:0A1BCE007F03121A19EF2402FF2210
:071C7500EF2411FF0219D951
:050D2C00908082EFF051
:100D31007F02121A19908083EFF07F01121A199025
:100D41008084EFF0908082E01460201460311460A0
:100D5100421460551460642405707A908083E054D5
:100D610001908085F0908084E08062908083E0C370
:100D7100135401908085F0908084E0C313804E90DD
:100D81008083E013135401908085F0908084E013F8
:100D910013803A908083E01313135401908085F0FF
:100DA100908084E01313138024908083E0C4540165
:100DB100908085F0908084E0C48012908083E0C4AC
:100DC100135401908085F0908084E0C41354019005
:100DD1008086F08007E4908085F0A3F0908086E023
:090DE10025E0FF908085E02FFF62
:010DEA0022E6
:061CA0007F08121A192250
:0D1B4F007F08121A19EF54F0C4540FFF2242
:10164300EF146014146015146016146017146018F6
:10165300240570207F1180127F12800E7F13800A71
:101663007F1480067F1580027F16121A199080AAB4
:0E167300EFF08005E49080AAF09080AAE0FFDE
:011681002246
:101ABA00EF547FFF908047E054804FF0E0FD7F05B0
:031ACA000219D925
:0319B80090809D7F
:1019BB00121A1590809EEFF090809DE0540325E065
:0E19CB00FFA3E054F94FF0E0FD7F060219D9AA
:0316820090809FB6
:10168500121A159080A0EFF090809FE0600C24FE68
:1016950070159080A0E0442080069080A0E054DF83
:1016A500F0E054F7F0800B9080A0E054DFF0E044C8
:0C16B50008F09080A0E0FD7F060219D92B
:0A1BD8007F17121A19EF5401FF22C3
:0C1B82007F17121A19EFC3135401FF2241
:0B1BA5007F17121A19EFC45401FF2231
:0C1B8E007F17121A19EFC4135401FF2234
:0D1B5C007F17121A19EF5430C4540FFF22E6
:0A1BE2007F17121A19EF5403FF22B7
:061CA6007F17121A19223B
:0A1BEC007F08121A19EF540FFF22B0
:0A1BF6007F09121A19EF5401FF22B3
:01005200228B
:0E1B0D00EF543F908047F0E0FD7F1C0219D995
:05173200908047EFF07C
:101737007F1D121A19908048EFF0908047E06004EF
:101747007F0180027F00EF540125E025E0FF9080B4
:0D17570048E054FB4FF0E0FD7F1D0219D962
:05179500908047EFF019
:10179A007F1D121A19908048EFF0908047E060048C
:1017AA007F0180027F00EF540125E0FF908048E02E
:0B17BA0054FD4FF0E0FD7F1D0219D927
:051851009080A1EFF002
:101856007F1D121A199080A2EFF09080A1E060041B
:101866007F0180027F00EF5401FF9080A2E054FECA
:091876004FF0E0FD7F1D0219D9BD
:0A1C0000908051EDF07FA0020976FC
:0A1C0A00908051EDF07FB0020976E2
:0F1AFE00EF44A8FF90804CE0908051F0020976F1
:061CAC007F60121A1922EC
:061CB2007F081203072267
:0A1C1400121C3CEF540EC313FF2214
:0A1C1E00C2917FE3121BC4D2912291
:0D1B6900121CA6EF5440C413135403FF22B6
:0A1C2800C2917FE2121BC4D2912288
:0A1C3200C2917FE1121BC4D291227F
:091C3C00C2917FFF121BC4D2917A
:011C4500227C
:03187F009080A3B3
:10188200121A159080A4EFF09080A3E060047F010B
:1018920080027F00EF5401C454F0FF9080A4E05412
:0A18A200EF4FF0E0FD7F060219D9B8
:0317C5009080A56C
:1017C800121A159080A6EFF09080A5E060047F01C2
:1017D80080027F00EF5401C43333335480FF90807C
:0D17E800A6E0547F4FF0E0FD7F060219D906
:041A1500EFF07F0669
:101A1900C2918FE5C2C030C0FDAFE5E4F5E5C2C0B3
:071A290030C0FDAFE5D291D2
:011A30002293
:1019D900C291EF2420F5E5C2C030C0FDAFE5AE05E8
:0F19E9008EE5C2C030C0FD908049E5E5F0D29197
:0119F80022CC
:10030700908063EBF0A3EAF0A3E9F0908062EFF04E
:1003170090806A7401F0908063E0908068F0EF1439
:10032700600C24FB600824FE601924087035121B3A
:10033700CE908066EFF0A3F0C291908062E0240A2D
:10034700FF801B121C14908062EFF0C394075013B8
:10035700121CAC908066EFF0A3F0C2917F61121B74
:10036700C48009E4908067F0908066F0908068E030
:03037700FF704BC9
:10037A00908063A3A3E090806BF0E4F5E5C2C0909F
:10038A00806AE07011908069E0FE90806BE0F8A6C8
:10039A0006E004F08005E490806AF030C0FD9080A9
:1003AA0069E5E5F0908066E014F070CE908069E02F
:0803BA00FE90806BE0F8A6063E
:0803C2000204EFEF6401706911
:1003CA00908063A3E0FAA3E0FF90806BEAF0A3EFCA
:1003DA00F0E4F5E5C2C090806AE07022908069E09E
:1003EA00FF90806BE0FCA3E0F5828C83EFF09080B5
:1003FA006CE004F0700D90806BE004F08005E490EE
:10040A00806AF030C0FD908069E5E5F0908066E092
:10041A0014F070BD908069E0FF90806BE0FCA3E06F
:06042A00F5828C83EFF067
:0B0430000204EF908068E064FE704A58
:10043B00908063A3A3E090806BF0E4F5E5C2C090DD
:10044B00806AE07011908069E0FF90806BE0F8EFBC
:10045B00F2E004F08005E490806AF030C0FD9080FB
:10046B0069E5E5F0908066E014F070CE908069E06D
:08047B00FF90806BE0F8EFF246
:02048300806A8D
:10048500908063E0F9A3E0FAA3E090806BC9F0A344
:10049500EAF0A3E9F0E4F5E5C2C090806AE07020D7
:1004A500908069E0FF90806BE0FBA3E0FAA3E0F9A0
:1004B500EF1201A290806CE475F0011201B4800581
:1004C500E490806AF030C0FD908069E5E5F09080A9
:1004D50066E014F070BF908069E0FF90806BE0FBF0
:0A04E500A3E0FAA3E0F9EF1201A270
:0E04EF00D291908062E0FE908067E0FDEDFF0C
:0104FD0022DC
:0B09760090804EEBF0A3EAF0A3E9F044
:0E09810090804EE0FDC2918FE5C2C0ED70295E
:10098F00A3A3E0908053F0908053E0F8E6FEE004DC
:10099F00F030C0FD908052E5E5F08EE5C2C090804A
:0609AF0051E014F070E1BC
:0809B500020A72ED64017042B8
:1009BD0090804EA3E0FBA3E0908053CBF0A3EBF02F
:1009CD00908053E0FEA3E0F5828E83E0FE9080548C
:1009DD00E004F07006908053E004F030C0FD90808C
:1009ED0052E5E5F08EE5C2C0908051E014F070D074
:0709FD008073ED64FE702B16
:100A040090804EA3A3E0908053F0908053E0F8E2EE
:100A1400FEE004F030C0FD908052E5E5F08EE5C2C2
:090A2400C0908051E014F070E173
:020A2D00804304
:100A2F0090804EE0F9A3E0FAA3E0908053C9F0A3C1
:100A3F00EAF0A3E9F0908053E0FBA3E0FAA3E0F91A
:100A4F0012015CFE908054E475F0011201B430C0C5
:100A5F00FD908052E5E5F08EE5C2C0908051E01424
:030A6F00F070D252
:0B0A720030C0FD908052E5E5F0D2910D
:010A7D002256
:0B1A4B007FFA7E00121A567FFA7E0020
:0F1A56000000000000EF1F70011E144E70F222FE
:101AA600AD07AC06121A4B121A4BED1D70011C1431
:041AB6004C70F1225D
:100E0E00020F31E493A3F8E493A34003F68001F2BA
:100E1E0008DFF48029E493A3F85407240CC8C333E5
:100E2E00C4540F4420C8834004F456800146F6DFB4
:100E3E00E4800B0102040810204080901ACDE47E5D
:100E4E00019360BCA3FF543F30E509541FFEE493A9
:100E5E00A360010ECF54C025E060A840B8E493A370
:100E6E00FAE493A3F8E493A3C8C582C8CAC583CA9B
:100E7E00F0A3C8C582C8CAC583CADFE9DEE780BE53
:011ADD000008
:10006600E709F608DFFA8046E709F208DFFA803E7C
:1000760088828C83E709F0A3DFFA8032E309F60869
:10008600DFFA8078E309F208DFFA807088828C83D1
:10009600E309F0A3DFFA806489828A83E0A3F60885
:1000A600DFFA805889828A83E0A3F208DFFA804C5F
:1000B60080D280FA80C680D4806980F28033801036
:1000C60080A680EA809A80A880DA80E280CA80339F
:1000D60089828A83ECFAE493A3C8C582C8CCC58317
:1000E600CCF0A3C8C582C8CCC583CCDFE9DEE780E7
:1000F6000D89828A83E493A3F608DFF9ECFAA9F066
:10010600EDFB2289828A83ECFAE0A3C8C582C8CCBB
:10011600C583CCF0A3C8C582C8CCC583CCDFEADED4
:10012600E880DB89828A83E493A3F208DFF980CC36
:1001360088F0EF60010E4E60C388F0ED2402B4042F
:100146000050B9F582EB2402B4040050AF232345D6
:0601560082239000B67345
:10015C00BB010689828A83E0225002E722BBFE02A1
:09016C00E32289828A83E49322D4
:10017500BB010CE58229F582E5833AF583E022503F
:1001850006E92582F8E622BBFE06E92582F8E22289
:0D019500E58229F582E5833AF583E49322A3
:1001A200BB010689828A83F0225002F722BBFE013C
:0201B200F32236
:1001B400C5F0F8A3E028F0C5F0F8E58215827002D6
:0601C4001583E038F02273
:1001CA00BB010A89828A83F0E5F0A3F0225006F780
:0F01DA0009A7F01922BBFE06F3E5F009F319227D
:1001E900BB011A89828A83D0F0D0E0F8D0E0F9D037
:1001F900E0FAD0E0FBE8C0E0C0F00202E05016E906
:10020900F8D083D082D0E0F9D0E0FAD0E0FBC08208
:10021900C0830202CEBBFE16E9F8D083D082D0E0BB
:0F022900F9D0E0FAD0E0FBC082C0830202F222DB
:10023800BB010DE58229F582E5833AF5830202D7F1
:100248005007E92582F80202C5BBFE07E92582F8B6
:100258000202E9E58229F582E5833AF5830202FB89
:10026800D083D082F8E4937012740193700DA3A325
:1002780093F8740193F5828883E473740293686039
:06028800EFA3A3A380DF39
:06028E008A838982E473FB
:10029400E55D2582F582E55C3583F583B55C0485EF
:1002A400825D2210AF0685825DF55C2285825DF554
:0402B4005CD2AF2247
:0D02B800E55D2582F582E55C3583F5832246
:0902C500E6FB08E6FA08E6F9225E
:0902CE00EBF608EAF608E9F62255
:0902D700E0FBA3E0FAA3E0F92228
:0902E000EBF0A3EAF0A3E9F0221F
:0902E900E2FB08E2FA08E2F92246
:0902F200EBF208EAF208E9F2223D
:0C02FB00E493FB740193FA740293F9225F
:00000001FF
