:0300000002039E5A
:0C039E00787FE4F6D8FD75814D0203E580
:060AF000014B00010A00A9
:10053000C295C2947FAA12004E12004EE4FD7F01C4
:1005400012077053BCEF75081ED2EA1209C8120BCD
:1005500089D2BAD2AFE509B401FBD295050AE50C00
:1005600064015401F50BE50A547FFFE50B75F01F9C
:10057000A4242BF8A607E50B75F01FA4240DFF7D1E
:0C0580001F120B35C29590002E7401F084
:10058C009000167414F0D2E8900016E0FF14F0EF0F
:04059C0070F6C2E84B
:0B05A00090002EE070FAE4F50980AA3C
:0A0B890075A10F75A20F43B20122FF
:030053000206EAB8
:0F06EA00C0E0C0F0C083C082C0D075D000C00097
:1006F900D29485BE4D90002DE0F8A6BFE004F0D558
:10070900081575081EE50C54016401F50C75F01FF8
:09071900A4240DF0750901C2943D
:0D072200D000D0D0D082D083D0F0D0E03213
:1009C800D2EAD2B97F011208EDE4FF12085F7F0175
:1009D80012091B7F7D120ABB7DFA7C00E4FF120A14
:0609E80012E4FF0208BF4B
:03004B0002042A82
:10042A00C0E0C0F0C083C082C0D075D000C000C098
:0D043A0001C002C003C004C005C006C00719
:10044700D295C2E975E727E5E630E1FBAFE775E747
:1004570070E5E630E1FB90001AE5E7F0D2E9EF54EA
:1004670070FF24F0601224F0600C24C0701B120B84
:10047700A7EF60FA800E800CC2E975E7E1E5E63088
:0B048700E1FBD2E990002EE4F0C295EA
:10049200D007D006D005D004D003D002D001D000BE
:0B04A200D0D0D082D083D0F0D0E03268
:080AF6004100300041002F0116
:10060700E4F5FCEF14600F14601114601314601507
:1006170024047016801743FC10801243FC20800DC1
:1006270043FC30800843FC40800343FC50ED1460DA
:100637000A14600C14600E2403800D43FC0280082A
:1006470043FC04800343FC06EB700343FC0843FCB4
:0206570001227E
:0A0B93008FFFE5FE30E2FBAFFF220A
:1007700075BCF0D2CE43A601EF14600A14600C14CD
:10078000600E2403800D43BC02800843BC04800338
:1007900043BC06ED5401F433333354F842BC43BC3C
:0E07A00001E5BE30E008900017E5BFF080F3E1
:0107AE002228
:070C130012004E120A9022AC
:10097600900030E045BEF0E0FF30E50890002F74AF
:1009860001F08009EF30E405E490002FF0EF54CF3A
:09099600900030F090002FE0FF0A
:01099F002235
:100ACE00900030E045BEF0E030E0037F01227F0071
:010ADE0022F5
:100A9000900030E020E00545BEF080F4900030E0AA
:060AA00054FEF0AFBF227E
:03004E008FBF223F
:0508BF00900017EFF0AE
:1008C400E4FF120A78900018EFF0900017E0B401EA
:1008D40007A3E04401F08007900018E054FEF09074
:0908E4000018E0FDE4FF020A54D3
:0508ED00900017EFF080
:1008F200E4FF120A78900018EFF0900017E0B401BC
:1009020007A3E04402F08007900018E054FDF09045
:090912000018E0FDE4FF020A54A4
:05000300900031EFF058
:10000800E4FF120A78900032EFF0900031E01460BB
:100018001014601A24027021900032E054F7F08026
:1000280018900032E04408F0E054FBF0800B900098
:1000380032E04408F0E04404F0900032E0FDE4FFD0
:03004800020A5455
:0804AD00900027EFF0A3EDF031
:1004B500E4FF120A78900029EFF0900027E024FB72
:1004C500602414603F24027058900028E060047F87
:1004D5000080027F01EF5401C454F0FF900029E031
:1004E50054EF4FF0803B900028E060047F008002CD
:1004F5007F01EF5401C43354E0FF900029E054DF3D
:100505004FF0801D900028E060047F0080027F018D
:10051500EF5401C4333354C0FF900029E054BF4F5A
:0B052500F0900029E0FDE4FF020A5402
:0B0B4F007D707F07120A54EF5470FF06
:010B5A002278
:1009EE007D707F07120A54EF547090003DF0E0FFC7
:1009FE00C0077F07120A78EF540FFED0E04EFF902B
:030A0E00003DF0B8
:010A110022C2
:100ADF007401A807088002C333D8FCFD7F07020A00
:010AEF0054B2
:080C0B00120BF7EF5470FF22F9
:08030C0090001BEFF0A3EDF0DF
:100314007F02120A7890001DEFF07F01120A789094
:10032400001EEFF090001BE0FF24FA500624076043
:100334003C80537401A807088002C333D8FCFD90A5
:10034400001DE04DF090001CE0600890001EE04DA0
:10035400F0803390001BE0FF7401A807088002C3FB
:1003640033D8FCF4FF90001EE05FF0801990001D6C
:10037400743FF090001CE0600890001E743FF08011
:1003840005E490001EF090001DE0FD7F02120A5467
:0A03940090001EE0FD7F01020A54F4
:0505AB0090002AEFF0B2
:1005B0007F02120A7890002BEFF07F01120A7890E8
:1005C000002CEFF090002AE0FF24FA500624076088
:1005D0001B80207401A807088002C333D8FCF4FDF7
:1005E00090002BE05DF0A3E05DF08007E490002B2D
:1005F000F0A3F090002BE0FD7F02120A5490002C33
:07060000E0FD7F01020A5436
:10065900900020EBF0A3EAF0A3E9F090001FEFF07F
:1006690014600A24FB501A60042406702B120B9D97
:10067900AB0790001FE0242AFFA3A3A3E0FD020912
:10068900A090001FE0240AFFA3E0FBA3E0FAA3E087
:09069900F912072FFD120A542288
:1006A200900024EBF0A3EAF0A3E9F0900023EFF02E
:1006B20014600824FB600424067011900023E0FFFC
:1006C200A3E0FBA3E0FAA3E0F9020056900023E0C6
:1006D200240AFF120A78900024E0FBA3E0FAA3E0C8
:0806E200F9EF1207487F012225
:020A1200AB0730
:100A1400EC540FC454F0FF900017E0540F4FF0EB68
:0F0A2400540FFFE054F04FF0E0FD7F04020A543E
:100AA600EF24FE5403FF90003EE054FC4FF0E0FDBF
:050AB6007F03020A5459
:0A0B9D007F03120A78EF2402FF2202
:070C1A00EF2411FF020A5450
:05024D0090000CEFF031
:100252007F02120A7890000DEFF07F01120A789067
:10026200000EEFF090000CE0146020146031146076
:10027200421460551460642405707A90000DE054B5
:100282000190000FF090000EE0806290000DE0C33C
:1002920013540190000FF090000EE0C313804E90B3
:1002A200000DE01313540190000FF090000EE013C4
:1002B20013803A90000DE0131313540190000FF0D5
:1002C20090000EE0131313802490000DE0C454013B
:1002D20090000FF090000EE0C4801290000DE0C478
:1002E20013540190000FF090000EE0C413540190DB
:1002F2000010F08007E490000FF0A3F0900010E0EF
:0903020025E0FF90000FE02FFF41
:01030B0022CF
:060C21007F08120A782290
:0D0B1B007F08120A78EF54F0C4540FFF2237
:1007AF00EF14601414601514601614601714601899
:1007BF00240570207F1180127F12800E7F13800A14
:1007CF007F1480067F1580027F16120A7890003FF3
:0E07DF00EFF08005E490003FF090003FE0FF57
:0107ED0022E9
:100ABB00EF547FFF900017E054804FF0E0FD7F056F
:030ACB00020A54C8
:030A3300900033FD
:100A3600120A74900034EFF0900033E0540325E07E
:0E0A4600FFA3E054F94FF0E0FD7F06020A54D2
:0307EE0090003543
:1007F100120A74900036EFF0900035E0600C24FE90
:100801007015900036E044208006900036E054DFF9
:10081100F0E054F7F0800B900036E054DFF0E04454
:0C08210008F0900036E0FD7F06020A544B
:0A0BA7007F17120A78EF5401FF22B5
:0C0B5B007F17120A78EFC3135401FF2229
:0B0B73007F17120A78EFC45401FF2224
:0C0B67007F17120A78EFC4135401FF221C
:0D0B28007F17120A78EF5430C4540FFF22DB
:0A0BB1007F17120A78EF5403FF22A9
:060C27007F17120A78227B
:0A0BBB007F08120A78EF540FFF22A2
:0A0BC5007F09120A78EF5401FF22A5
:01005100228C
:0E0AFF00EF543F900040F0E0FD7F1C020A54CF
:05082D00900037EFF020
:100832007F1D120A78900038EFF0900037E06004D4
:100842007F0180027F00EF540125E025E0FF900048
:0D08520038E054FB4FF0E0FD7F1D020A541A
:05085F00900017EFF00E
:100864007F1D120A78900018EFF0900017E06004E2
:100874007F0180027F00EF540125E0FF900018E023
:0B08840054FD4FF0E0FD7F1D020A5400
:05091B00900017EFF051
:100920007F1D120A78900018EFF0900017E0600425
:100930007F0180027F00EF5401FF900018E054FE19
:090940004FF0E0FD7F1D020A5496
:0B0B7E00AF05AD01AB077FA00209A08E
:0D0B3500AE05AD07AF06AB077FB00209A00B
:0E0B0D00EF44A8FFAD01900015E0FB0209A027
:060C2D007F60120A78222C
:060C33007F0812005622AA
:0A0BCF00120BF7EF540EC313FF22C0
:0A0BD900C2E97FE3120C01D2E92209
:0D0B4200120C27EF5440C413135403FF227C
:0A0BE300C2E97FE2120C01D2E92200
:0A0BED00C2E97FE1120C01D2E922F7
:090BF700C2E97FFF120C01D2E9F2
:010C000022D1
:03094900900039E2
:10094C00120A7490003AEFF0900039E060047F01D5
:10095C0080027F00EF5401C454F0FF90003AE05441
:0A096C00EF4FF0E0FD7F06020A5491
:03088F0090003B9B
:10089200120A7490003CEFF090003BE060047F018C
:1008A20080027F00EF5401C43333335480FF900041
:0D08B2003CE0547F4FF0E0FD7F06020A5449
:040A7400EFF07F061A
:100A7800C2E98FE7E5E630E1FBAFE7E4F5E7E5E655
:070A880030E1FBAFE7D2E90A
:010A8F002244
:100A5400C2E9EF2420F5E7E5E630E1FBAFE7AE05B8
:0F0A64008EE7E5E630E1FB900019E5E7F0D2E917
:010A73002260
:10005600900001EBF0A3EAF0A3E9F0900000EFF0C6
:100066009000087401F0900001E0900006F0EF1493
:10007600600C24FB600824FE601924087035120BFE
:100086009D900004EFF0A3F0C2E9900000E0240A7E
:10009600FF801B120BCF900000EFF0C394075013A4
:1000A600120C2D900004EFF0A3F0C2E97F61120C50
:1000B600018009E4900005F0900004F0900006E04D
:0300C600FF704B7D
:1000C900900001A3A3E0900009F0E4F5E79000088F
:1000D900E07011900007E0FE900009E0F8A606E044
:1000E90004F08005E4900008F0E5E630E1FB9000BB
:1000F90007E5E7F0900004E014F070CE900007E007
:08010900FE900009E0F8A606D3
:0801110002023EEF6401706977
:10011900900001A3E0FAA3E0FF900009EAF0A3EF41
:10012900F0E4F5E7900008E07022900007E0FF9006
:100139000009E0FCA3E0F5828C83EFF090000AE06F
:1001490004F0700D900009E004F08005E4900008C7
:10015900F0E5E630E1FB900007E5E7F0900004E008
:1001690014F070BD900007E0FF900009E0FCA3E0E7
:06017900F5828C83EFF01B
:0B017F0002023E900006E064FE704AA1
:10018A00900001A3A3E0900009F0E4F5E7900008CD
:10019A00E07011900007E0FF900009E0F8EFF2E04C
:1001AA0004F08005E4900008F0E5E630E1FB9000F9
:1001BA0007E5E7F0900004E014F070CE900007E045
:0801CA00FF900009E0F8EFF2DC
:0201D200806A41
:1001D400900001E0F9A3E0FAA3E0900009C9F0A3BC
:1001E400EAF0A3E9F0E4F5E7900008E0702090005D
:1001F40007E0FF900009E0FBA3E0FAA3E0F9EF12A7
:10020400074890000AE475F00112075A8005E4904B
:100214000008F0E5E630E1FB900007E5E7F0900028
:1002240004E014F070BF900007E0FF900009E0FBC9
:0A023400A3E0FAA3E0F9EF12074877
:0E023E00D2E9900000E0FE900005E0FDEDFF2B
:01024C00228F
:0209A000A805A8
:1009A200C2E98FE7E6F54C08E5E630E1FB90001777
:1009B200E5E7F0854CE7DBECE5E630E1FB9000177C
:0509C200E5E7F0D2E9B9
:0109C700220D
:0A0C01008FE7E5E630E1FBAFE722E4
:1003AA00020530E493A3F8E493A34003F68001F234
:1003BA0008DFF48029E493A3F85407240CC8C33354
:1003CA00C4540F4420C8834004F456800146F6DF23
:1003DA00E4800B0102040810204080900AF0E47EB9
:1003EA00019360BCA3FF543F30E509541FFEE49318
:1003FA00A360010ECF54C025E060A840B8E493A3DF
:10040A00FAE493A3F8E493A3C8C582C8CAC583CA09
:10041A00F0A3C8C582C8CAC583CADFE9DEE780BEC1
:010AFE0000F7
:10072F00BB010689828A83E0225002E722BBFE02C8
:09073F00E32289828A83E49322FB
:10074800BB010689828A83F0225002F722BBFE0190
:02075800F3228A
:10075A00C5F0F8A3E028F0C5F0F8E582158270022A
:06076A001583E038F022C7
:00000001FF
