:0300000002039E5A
:0C039E00787FE4F6D8FD75814D0203E580
:060AF300014B00010A00A6
:100530005394CEC295C2947FAA12004E12004EE48C
:10054000FD7F0112077353BCEF75081ED2EA120932
:10055000CB120B8CD2BAD2AFE509B401FBD2950510
:100560000AE50C64015401F50BE50A547FFFE50B25
:1005700075F01FA4242BF8A607E50B75F01FA42423
:0F0580000DFF7D1F120B38C29590002E7401F0F5
:10058F009000167414F0D2E8900016E0FF14F0EF0C
:04059F0070F6C2E848
:0B05A30090002EE070FAE4F50980AA39
:0A0B8C0075A10F75A20F43B20122FC
:030053000206EDB5
:0F06ED00C0E0C0F0C083C082C0D075D000C00094
:1006FC00D29485BE4D90002DE0F8A6BFE004F0D555
:10070C00081575081EE50C54016401F50C75F01FF5
:09071C00A4240DF0750901C2943A
:0D072500D000D0D0D082D083D0F0D0E03210
:1009CB00D2EAD2B97F011208F0E4FF1208627F016C
:1009DB0012091E7F7D120ABE7DFA7C00E4FF120A0B
:0609EB0015E4FF0208C242
:03004B0002042A82
:10042A00C0E0C0F0C083C082C0D075D000C000C098
:0D043A0001C002C003C004C005C006C00719
:10044700D295C2E975E727E5E630E1FBAFE775E747
:1004570070E5E630E1FB90001AE5E7F0D2E9EF54EA
:1004670070FF24F0601224F0600C24C0701B120B84
:10047700AAEF60FA800E800CC2E975E7E1E5E63085
:0B048700E1FBD2E990002EE4F0C295EA
:10049200D007D006D005D004D003D002D001D000BE
:0B04A200D0D0D082D083D0F0D0E03268
:080AF9004100300041002F0113
:10060A00E4F5FCEF14600F14601114601314601504
:10061A0024047016801743FC10801243FC20800DBE
:10062A0043FC30800843FC40800343FC50ED1460D7
:10063A000A14600C14600E2403800D43FC02800827
:10064A0043FC04800343FC06EB700343FC0843FCB1
:02065A0001227B
:0A0B96008FFFE5FE30E2FBAFFF2207
:1007730075BCF0D2CE43A601EF14600A14600C14CA
:10078300600E2403800D43BC02800843BC04800335
:1007930043BC06ED5401F433333354F842BC43BC39
:0E07A30001E5BE30E008900017E5BFF080F3DE
:0107B1002225
:070C160012004E120A9322A6
:10097900900030E045BEF0E0FF30E50890002F74AC
:1009890001F08009EF30E405E490002FF0EF54CF37
:09099900900030F090002FE0FF07
:0109A2002232
:100AD100900030E045BEF0E030E0037F01227F006E
:010AE10022F2
:100A9300900030E020E00545BEF080F4900030E0A7
:060AA30054FEF0AFBF227B
:03004E008FBF223F
:0508C200900017EFF0AB
:1008C700E4FF120A7B900018EFF0900017E0B401E4
:1008D70007A3E04401F08007900018E054FEF09071
:0908E7000018E0FDE4FF020A57CD
:0508F000900017EFF07D
:1008F500E4FF120A7B900018EFF0900017E0B401B6
:1009050007A3E04402F08007900018E054FDF09042
:090915000018E0FDE4FF020A579E
:05000300900031EFF058
:10000800E4FF120A7B900032EFF0900031E01460B8
:100018001014601A24027021900032E054F7F08026
:1000280018900032E04408F0E054FBF0800B900098
:1000380032E04408F0E04404F0900032E0FDE4FFD0
:03004800020A5752
:0804AD00900027EFF0A3EDF031
:1004B500E4FF120A7B900029EFF0900027E024FB6F
:1004C500602414603F24027058900028E060047F87
:1004D5000080027F01EF5401C454F0FF900029E031
:1004E50054EF4FF0803B900028E060047F008002CD
:1004F5007F01EF5401C43354E0FF900029E054DF3D
:100505004FF0801D900028E060047F0080027F018D
:10051500EF5401C4333354C0FF900029E054BF4F5A
:0B052500F0900029E0FDE4FF020A57FF
:0B0B52007D707F07120A57EF5470FF00
:010B5D002275
:1009F1007D707F07120A57EF547090003DF0E0FFC1
:100A0100C0077F07120A7BEF540FFED0E04EFF9024
:030A1100003DF0B5
:010A140022BF
:100AE2007401A807088002C333D8FCFD7F07020AFD
:010AF20057AC
:080C0E00120BFAEF5470FF22F3
:08030C0090001BEFF0A3EDF0DF
:100314007F02120A7B90001DEFF07F01120A7B908E
:10032400001EEFF090001BE0FF24FA500624076043
:100334003C80537401A807088002C333D8FCFD90A5
:10034400001DE04DF090001CE0600890001EE04DA0
:10035400F0803390001BE0FF7401A807088002C3FB
:1003640033D8FCF4FF90001EE05FF0801990001D6C
:10037400743FF090001CE0600890001E743FF08011
:1003840005E490001EF090001DE0FD7F02120A5764
:0A03940090001EE0FD7F01020A57F1
:0505AE0090002AEFF0AF
:1005B3007F02120A7B90002BEFF07F01120A7B90DF
:1005C300002CEFF090002AE0FF24FA500624076085
:1005D3001B80207401A807088002C333D8FCF4FDF4
:1005E30090002BE05DF0A3E05DF08007E490002B2A
:1005F300F0A3F090002BE0FD7F02120A5790002C2D
:07060300E0FD7F01020A5730
:10065C00900020EBF0A3EAF0A3E9F090001FEFF07C
:10066C0014600A24FB501A60042406702B120BA091
:10067C00AB0790001FE0242AFFA3A3A3E0FD02090F
:10068C00A390001FE0240AFFA3E0FBA3E0FAA3E081
:09069C00F9120732FD120A57227F
:1006A500900024EBF0A3EAF0A3E9F0900023EFF02B
:1006B50014600824FB600424067011900023E0FFF9
:1006C500A3E0FBA3E0FAA3E0F9020056900023E0C3
:1006D500240AFF120A7B900024E0FBA3E0FAA3E0C2
:0806E500F9EF12074B7F01221F
:020A1500AB072D
:100A1700EC540FC454F0FF900017E0540F4FF0EB65
:0F0A2700540FFFE054F04FF0E0FD7F04020A5738
:100AA900EF24FE5403FF90003EE054FC4FF0E0FDBC
:050AB9007F03020A5753
:0A0BA0007F03120A7BEF2402FF22FC
:070C1D00EF2411FF020A574A
:05024D0090000CEFF031
:100252007F02120A7B90000DEFF07F01120A7B9061
:10026200000EEFF090000CE0146020146031146076
:10027200421460551460642405707A90000DE054B5
:100282000190000FF090000EE0806290000DE0C33C
:1002920013540190000FF090000EE0C313804E90B3
:1002A200000DE01313540190000FF090000EE013C4
:1002B20013803A90000DE0131313540190000FF0D5
:1002C20090000EE0131313802490000DE0C454013B
:1002D20090000FF090000EE0C4801290000DE0C478
:1002E20013540190000FF090000EE0C413540190DB
:1002F2000010F08007E490000FF0A3F0900010E0EF
:0903020025E0FF90000FE02FFF41
:01030B0022CF
:060C24007F08120A7B228A
:0D0B1E007F08120A7BEF54F0C4540FFF2231
:1007B200EF14601414601514601614601714601896
:1007C200240570207F1180127F12800E7F13800A11
:1007D2007F1480067F1580027F16120A7B90003FED
:0E07E200EFF08005E490003FF090003FE0FF54
:0107F00022E6
:100ABE00EF547FFF900017E054804FF0E0FD7F056C
:030ACE00020A57C2
:030A3600900033FA
:100A3900120A77900034EFF0900033E0540325E078
:0E0A4900FFA3E054F94FF0E0FD7F06020A57CC
:0307F10090003540
:1007F400120A77900036EFF0900035E0600C24FE8A
:100804007015900036E044208006900036E054DFF6
:10081400F0E054F7F0800B900036E054DFF0E04451
:0C08240008F0900036E0FD7F06020A5745
:0A0BAA007F17120A7BEF5401FF22AF
:0C0B5E007F17120A7BEFC3135401FF2223
:0B0B76007F17120A7BEFC45401FF221E
:0C0B6A007F17120A7BEFC4135401FF2216
:0D0B2B007F17120A7BEF5430C4540FFF22D5
:0A0BB4007F17120A7BEF5403FF22A3
:060C2A007F17120A7B2275
:0A0BBE007F08120A7BEF540FFF229C
:0A0BC8007F09120A7BEF5401FF229F
:01005100228C
:0E0B0200EF543F900040F0E0FD7F1C020A57C8
:05083000900037EFF01D
:100835007F1D120A7B900038EFF0900037E06004CE
:100845007F0180027F00EF540125E025E0FF900045
:0D08550038E054FB4FF0E0FD7F1D020A5714
:05086200900017EFF00B
:100867007F1D120A7B900018EFF0900017E06004DC
:100877007F0180027F00EF540125E0FF900018E020
:0B08870054FD4FF0E0FD7F1D020A57FA
:05091E00900017EFF04E
:100923007F1D120A7B900018EFF0900017E060041F
:100933007F0180027F00EF5401FF900018E054FE16
:090943004FF0E0FD7F1D020A5790
:0B0B8100AF05AD01AB077FA00209A388
:0D0B3800AE05AD07AF06AB077FB00209A305
:0E0B1000EF44A8FFAD01900015E0FB0209A321
:060C30007F60120A7B2226
:060C36007F0812005622A7
:0A0BD200120BFAEF540EC313FF22BA
:0A0BDC00C2E97FE3120C04D2E92203
:0D0B4500120C2AEF5440C413135403FF2276
:0A0BE600C2E97FE2120C04D2E922FA
:0A0BF000C2E97FE1120C04D2E922F1
:090BFA00C2E97FFF120C04D2E9EC
:010C030022CE
:03094C00900039DF
:10094F00120A7790003AEFF0900039E060047F01CF
:10095F0080027F00EF5401C454F0FF90003AE0543E
:0A096F00EF4FF0E0FD7F06020A578B
:0308920090003B98
:10089500120A7790003CEFF090003BE060047F0186
:1008A50080027F00EF5401C43333335480FF90003E
:0D08B5003CE0547F4FF0E0FD7F06020A5743
:040A7700EFF07F0617
:100A7B00C2E98FE7E5E630E1FBAFE7E4F5E7E5E652
:070A8B0030E1FBAFE7D2E907
:010A92002241
:100A5700C2E9EF2420F5E7E5E630E1FBAFE7AE05B5
:0F0A67008EE7E5E630E1FB900019E5E7F0D2E914
:010A7600225D
:10005600900001EBF0A3EAF0A3E9F0900000EFF0C6
:100066009000087401F0900001E0900006F0EF1493
:10007600600C24FB600824FE601924087035120BFE
:10008600A0900004EFF0A3F0C2E9900000E0240A7B
:10009600FF801B120BD2900000EFF0C394075013A1
:1000A600120C30900004EFF0A3F0C2E97F61120C4D
:1000B600048009E4900005F0900004F0900006E04A
:0300C600FF704B7D
:1000C900900001A3A3E0900009F0E4F5E79000088F
:1000D900E07011900007E0FE900009E0F8A606E044
:1000E90004F08005E4900008F0E5E630E1FB9000BB
:1000F90007E5E7F0900004E014F070CE900007E007
:08010900FE900009E0F8A606D3
:0801110002023EEF6401706977
:10011900900001A3E0FAA3E0FF900009EAF0A3EF41
:10012900F0E4F5E7900008E07022900007E0FF9006
:100139000009E0FCA3E0F5828C83EFF090000AE06F
:1001490004F0700D900009E004F08005E4900008C7
:10015900F0E5E630E1FB900007E5E7F0900004E008
:1001690014F070BD900007E0FF900009E0FCA3E0E7
:06017900F5828C83EFF01B
:0B017F0002023E900006E064FE704AA1
:10018A00900001A3A3E0900009F0E4F5E7900008CD
:10019A00E07011900007E0FF900009E0F8EFF2E04C
:1001AA0004F08005E4900008F0E5E630E1FB9000F9
:1001BA0007E5E7F0900004E014F070CE900007E045
:0801CA00FF900009E0F8EFF2DC
:0201D200806A41
:1001D400900001E0F9A3E0FAA3E0900009C9F0A3BC
:1001E400EAF0A3E9F0E4F5E7900008E0702090005D
:1001F40007E0FF900009E0FBA3E0FAA3E0F9EF12A7
:10020400074B90000AE475F00112075D8005E49045
:100214000008F0E5E630E1FB900007E5E7F0900028
:1002240004E014F070BF900007E0FF900009E0FBC9
:0A023400A3E0FAA3E0F9EF12074B74
:0E023E00D2E9900000E0FE900005E0FDEDFF2B
:01024C00228F
:0209A300A805A5
:1009A500C2E98FE7E6F54C08E5E630E1FB90001774
:1009B500E5E7F0854CE7DBECE5E630E1FB90001779
:0509C500E5E7F0D2E9B6
:0109CA00220A
:0A0C04008FE7E5E630E1FBAFE722E1
:1003AA00020530E493A3F8E493A34003F68001F234
:1003BA0008DFF48029E493A3F85407240CC8C33354
:1003CA00C4540F4420C8834004F456800146F6DF23
:1003DA00E4800B0102040810204080900AF3E47EB6
:1003EA00019360BCA3FF543F30E509541FFEE49318
:1003FA00A360010ECF54C025E060A840B8E493A3DF
:10040A00FAE493A3F8E493A3C8C582C8CAC583CA09
:10041A00F0A3C8C582C8CAC583CADFE9DEE780BEC1
:010B010000F3
:10073200BB010689828A83E0225002E722BBFE02C5
:09074200E32289828A83E49322F8
:10074B00BB010689828A83F0225002F722BBFE018D
:02075B00F32287
:10075D00C5F0F8A3E028F0C5F0F8E5821582700227
:06076D001583E038F022C4
:00000001FF
