:030000000204A651
:0C04A600787FE4F6D8FD75814E0204ED6D
:030C1B00014E0087
:100691005394AE7FAA12004E7FAA12004EE4FDFFD2
:1006A10012087A53BCEF75081ED2EA120A80D2BA38
:1006B100D2AFE509B401FBE50D6401540175F020E9
:1006C100A4240EF9E4FAFB7D20120C9290004274EE
:0206D10001F036
:1006D30090000C7414F0D2E890000CE0FF14F0EFDB
:0406E30070F6C2E803
:0C06E700900042E070FA00E4F50980C0C9
:030053000205B5EE
:1005B500C0E0C0F0C083C082C085C084C0925392A1
:0C05C500FEC0D075D000C001C002C00311
:1005D100900016E4F0E5BEF0E5BFF0E0AB0AAA0B2F
:1005E100A90C1208527401250CF50CE4350BF50B1E
:1005F100D5081C75081E530D01630D01E50D75F03D
:1006010020A4240EF9E4F50AF50B890C7509010003
:10061100D003D002D001D0D0D092D084D085D08266
:07062100D083D0F0D0E032DD
:100A8000D2EAD2B97F011209F77F011209697F0109
:100A90001209377F01120BE67F7D120BA27DFA7CD3
:0B0AA000007F14120AF9E4FF0209C9EC
:03004B0002062882
:10062800C0E0C0F0C083C082C085C084C09253922D
:10063800FEC0D075D000C000C001C002C003C00415
:06064800C005C006C0075A
:10064E00120C27EF24F0601224F0600C24C07012FC
:10065E00120C6AEF60FA80058003120CC4900042FF
:02066E00E4F0B6
:10067000D007D006D005D004D003D002D001D000DE
:10068000D0D0D092D084D085D082D083D0F0D0E0AA
:010690003237
:080C1E004100350041003401E2
:10074F00E4F5FCEF14600F146011146013146015BE
:10075F0024047016801743FC10801243FC20800D78
:10076F0043FC30800843FC40800343FC50ED146091
:10077F000A14600C14600E2403800D43FC028008E1
:10078F0043FC04800343FC06EB700343FC0843FC6B
:02079F00012235
:0A0C56008FFFE5FE30E2FBAFFF2246
:10087A0075BCF0D2CE43A601EF14600A14600C14C2
:10088A00600E2403800D43BC02800843BC0480032D
:10089A0043BC06ED5401F433333354F842BC43BC31
:0E08AA0001E5BE30E00890000DE5BFF080F3E0
:0108B800221D
:070CEA0012004E120B7722ED
:100AAB00900035E045BEF0E0FF30E508900034746F
:100ABB0001F08009EF30E405E4900034F0EF54CFFF
:090ACB00900035F0900034E0FFCA
:010AD40022FF
:100BB500900035E045BEF0E030E0037F01227F0084
:010BC500220D
:100B7700900035E020E00545BEF080F4900035E0B8
:060B870054FEF0AFBF2296
:03004E008FBF223F
:0509C90090000DEFF0AD
:1009CE00E4FF120B5F90000EEFF090000DE0B4010B
:1009DE0007A3E04401F0800790000EE054FEF09073
:0909EE00000EE0FDE4FF020B3BEA
:0509F70090000DEFF07F
:1009FC00E4FF120B5F90000EEFF090000DE0B401DD
:100A0C0007A3E04402F0800790000EE054FDF09044
:090A1C00000EE0FDE4FF020B3BBB
:05000300900036EFF053
:10000800E4FF120B5F900037EFF0900036E01460C9
:100018001014601A24027021900037E054F7F08021
:1000280018900037E04408F0E054FBF0800B900093
:1000380037E04408F0E04404F0900037E0FDE4FFC6
:03004800020B3B6D
:0805320090002EEFF0A3EDF0A4
:10053A00E4FF120B5F900030EFF090002EE024FBF6
:10054A00602414603F2402705890002FE060047FFA
:10055A000080027F01EF5401C454F0FF900030E0A4
:10056A0054EF4FF0803B90002FE060047F00800240
:10057A007F01EF5401C43354E0FF900030E054DFB0
:10058A004FF0801D90002FE060047F0080027F0101
:10059A00EF5401C4333354C0FF900030E054BF4FCE
:0B05AA00F0900030E0FDE4FF020B3B8E
:0B0C27007D707F07120B3BEF5470FF45
:010C3200229F
:100AD5007D707F07120B3BEF5470900043F0E0FFF1
:100AE500C0077F07120B5FEF540FFED0E04EFF905B
:030AF5000043F0CB
:010AF80022DB
:100BC6007401A807088002C333D8FCFD7F07020B17
:010BD6003BE3
:080CE200120CCEEF5470FF224A
:08041400900022EFF0A3EDF0CF
:10041C007F02120B5F900024EFF07F01120B5F90B4
:10042C000025EFF0900022E0FF24FA50062407602C
:10043C003C80537401A807088002C333D8FCFD909C
:10044C000024E04DF0900023E06008900025E04D82
:10045C00F08033900022E0FF7401A807088002C3EB
:10046C0033D8FCF4FF900025E05FF0801990002455
:10047C00743FF0900023E06008900025743FF080FA
:10048C0005E4900025F0900024E0FD7F02120B3B68
:0A049C00900025E0FD7F01020B3BFC
:0506F300900031EFF062
:1006F8007F02120B5F900032EFF07F01120B5F90C8
:100708000033EFF0900031E0FF24FA500624076030
:100718001B80207401A807088002C333D8FCF4FDAD
:10072800900032E05DF0A3E05DF08007E4900032D5
:10073800F0A3F0900032E0FD7F02120B3B900033F3
:07074800E0FD7F01020B3B05
:1007A100900027EBF0A3EAF0A3E9F0900026EFF028
:1007B10014600A24FB5021600424067032120C607C
:1007C100900011EFF0900026E0242AFFA3E0FBA3A4
:1007D100E0FAA3E0F902024D900026E0240AFFA30B
:1007E100E0FBA3E0FAA3E0F9120839FD120B3B226A
:1007F10090002BEBF0A3EAF0A3E9F090002AEFF0D0
:1008010014600824FB60042406701190002AE0FFA4
:10081100A3E0FBA3E0FAA3E0F902005690002AE06E
:10082100240AFF120B5F90002BE0FBA3E0FAA3E088
:08083100F9EF1208527F0122C9
:020AF900AB0749
:100AFB00EC540FC454F0FF90000DE0540F4FF0EB8B
:0F0B0B00540FFFE054F04FF0E0FD7F04020B3B6E
:100B8D00EF24FE5403FF900044E054FC4FF0E0FDD1
:050B9D007F03020B3B89
:0A0C60007F03120B5FEF2402FF2256
:070CF100EF2411FF020B3B91
:05035500900018EFF01C
:10035A007F02120B5F900019EFF07F01120B5F9082
:10036A00001AEFF0900018E0146020146031146055
:10037A00421460551460642405707A900019E054A0
:10038A000190001BF090001AE08062900019E0C30F
:10039A0013540190001BF090001AE0C313804E9092
:1003AA000019E01313540190001BF090001AE01397
:1003BA0013803A900019E0131313540190001BF0B4
:1003CA0090001AE01313138024900019E0C454011A
:1003DA0090001BF090001AE0C48012900019E0C44B
:1003EA0013540190001BF090001AE0C413540190BA
:1003FA00001CF08007E490001BF0A3F090001CE0C2
:09040A0025E0FF90001BE02FFF2C
:0104130022C6
:060CF8007F08120B5F22D1
:0D0BF4007F08120B5FEF54F0C4540FFF2276
:1008B900EF1460141460151460161460171460188E
:1008C900240570207F1180127F12800E7F13800A09
:1008D9007F1480067F1580027F16120B5F900045FA
:0E08E900EFF08005E4900045F0900045E0FF40
:0108F70022DE
:100BA200EF547FFF90000DE054804FF0E0FD7F0591
:030BB200020B3BF8
:030B1A0090003810
:100B1D00120B5B900039EFF0900038E0540325E0A4
:0E0B2D00FFA3E054F94FF0E0FD7F06020B3B02
:0308F80090003A33
:1008FB00120B5B90003BEFF090003AE0600C24FE93
:10090B00701590003BE04420800690003BE054DFE4
:10091B00F0E054F7F0800B90003BE054DFF0E04444
:0C092B0008F090003BE0FD7F06020B3B53
:0A0C6A007F17120B5FEF5401FF2209
:0C0C33007F17120B5FEFC3135401FF2268
:0B0C4B007F17120B5FEFC45401FF2263
:0C0C3F007F17120B5FEFC4135401FF225B
:0D0C01007F17120B5FEF5430C4540FFF2219
:0A0C74007F17120B5FEF5403FF22FD
:060CFE007F17120B5F22BC
:0A0C7E007F08120B5FEF540FFF22F6
:0A0C88007F09120B5FEF5401FF22F9
:01005100228C
:0E0BE600EF543F90000DF0E0FD7F1C020B3B32
:0509370090000DEFF03F
:10093C007F1D120B5F90000EEFF090000DE0600435
:10094C007F0180027F00EF540125E025E0FF90003D
:0D095C000EE054FB4FF0E0FD7F1D020B3B51
:0509690090000DEFF00D
:10096E007F1D120B5F90000EEFF090000DE0600403
:10097E007F0180027F00EF540125E0FF90000EE022
:0B098E0054FD4FF0E0FD7F1D020B3B0D
:050A250090003CEFF021
:100A2A007F1D120B5F90003DEFF090003CE06004E8
:100A3A007F0180027F00EF5401FF90003DE054FEE9
:090A4A004FF0E0FD7F1D020B3BA3
:0A0C9200900011EDF07FA002024D6A
:0A0C9C00900011EDF07FB002024D50
:0F0BD700EF44A8FF900021E0900011F002024DC2
:060D04007F60120B5F226C
:060D0A007F0812005622D2
:0A0CA600120CCEEF540EC313FF2210
:0A0CB000C2E97FE3120CD8D2E9225A
:0D0C0E00120CFEEF5440C413135403FF22D8
:0A0CBA00C2E97FE2120CD8D2E92251
:0A0CC400C2E97FE1120CD8D2E92248
:090CCE00C2E97FFF120CD8D2E943
:010CD70022FA
:030A530090003ED2
:100A5600120B5B90003FEFF090003EE060047F01D8
:100A660080027F00EF5401C454F0FF90003FE05431
:0A0A7600EF4FF0E0FD7F06020B3B9E
:030999009000408B
:10099C00120B5B900041EFF0900040E060047F018F
:1009AC0080027F00EF5401C43333335480FF900036
:0D09BC0041E0547F4FF0E0FD7F06020B3B51
:040B5B00EFF07F0632
:100B5F00C2E98FE7E5E630E1FBAFE7E4F5E7E5E66D
:070B6F0030E1FBAFE7D2E922
:010B7600225C
:100B3B00C2E9EF2420F5E7E5E630E1FBAFE7AE05D0
:0F0B4B008EE7E5E630E1FB900017E5E7F0D2E931
:010B5A002278
:10005600900001EBF0A3EAF0A3E9F0900000EFF0C6
:100066009000087401F0900001E0900006F0EF1493
:10007600600C24FB600824FE601924087035120CFD
:1000860060900004EFF0A3F0C2E9900000E0240ABB
:10009600FF801B120CA6900000EFF0C394075013CC
:1000A600120D04900004EFF0A3F0C2E97F61120C78
:1000B600D88009E4900005F0900004F0900006E076
:0300C600FF704B7D
:1000C900900001A3A3E0900009F0E4F5E79000088F
:1000D900E07011900007E0FE900009E0F8A606E044
:1000E90004F08005E4900008F0E5E630E1FB9000BB
:1000F90007E5E7F0900004E014F070CE900007E007
:08010900FE900009E0F8A606D3
:0801110002023EEF6401706977
:10011900900001A3E0FAA3E0FF900009EAF0A3EF41
:10012900F0E4F5E7900008E07022900007E0FF9006
:100139000009E0FCA3E0F5828C83EFF090000AE06F
:1001490004F0700D900009E004F08005E4900008C7
:10015900F0E5E630E1FB900007E5E7F0900004E008
:1001690014F070BD900007E0FF900009E0FCA3E0E7
:06017900F5828C83EFF01B
:0B017F0002023E900006E064FE704AA1
:10018A00900001A3A3E0900009F0E4F5E7900008CD
:10019A00E07011900007E0FF900009E0F8EFF2E04C
:1001AA0004F08005E4900008F0E5E630E1FB9000F9
:1001BA0007E5E7F0900004E014F070CE900007E045
:0801CA00FF900009E0F8EFF2DC
:0201D200806A41
:1001D400900001E0F9A3E0FAA3E0900009C9F0A3BC
:1001E400EAF0A3E9F0E4F5E7900008E0702090005D
:1001F40007E0FF900009E0FBA3E0FAA3E0F9EF12A7
:10020400085290000AE475F0011208648005E49035
:100214000008F0E5E630E1FB900007E5E7F0900028
:1002240004E014F070BF900007E0FF900009E0FBC9
:0A023400A3E0FAA3E0F9EF1208526C
:0E023E00D2E9900000E0FE900005E0FDEDFF2B
:01024C00228F
:0B024D0090000EEBF0A3EAF0A3E9F034
:0C02580090000EE0FDC2E98FE7ED702978
:10026400A3A3E0900013F0900013E0F8E6FEE0048E
:10027400F0E5E630E1FB900012E5E7F08EE7900050
:0602840011E014F070E12E
:08028A00020347ED640170421C
:1002920090000EA3E0FBA3E0900013CBF0A3EBF0E1
:1002A200900013E0FEA3E0F5828E83E0FE9000143E
:1002B200E004F07006900013E004F0E5E630E1FBA4
:1002C200900012E5E7F08EE7900011E014F070D094
:0702D2008073ED64FE702B48
:1002D90090000EA3A3E0900013F0900013E0F8E261
:1002E900FEE004F0E5E630E1FB900012E5E7F08E70
:0902F900E7900011E014F070E13F
:02030200804336
:1003040090000EE0F9A3E0FAA3E0900013C9F0A373
:10031400EAF0A3E9F0900013E0FBA3E0FAA3E0F90C
:10032400120839FE900014E475F001120864E5E641
:1003340030E1FB900012E5E7F08EE7900011E01445
:03034400F070D284
:0D034700E5E630E1FB900012E5E7F0D2E9B9
:010354002286
:0A0CD8008FE7E5E630E1FBAFE7220D
:1004B200020691E493A3F8E493A34003F68001F2C9
:1004C20008DFF48029E493A3F85407240CC8C3334B
:1004D200C4540F4420C8834004F456800146F6DF1A
:1004E200E4800B0102040810204080900C1BE47E83
:1004F200019360BCA3FF543F30E509541FFEE4930F
:10050200A360010ECF54C025E060A840B8E493A3D5
:10051200FAE493A3F8E493A3C8C582C8CAC583CA00
:10052200F0A3C8C582C8CAC583CADFE9DEE780BEB8
:010C260000CD
:10083900BB010689828A83E0225002E722BBFE02BD
:09084900E32289828A83E49322F0
:10085200BB010689828A83F0225002F722BBFE0185
:02086200F3227F
:10086400C5F0F8A3E028F0C5F0F8E582158270021F
:060874001583E038F022BC
:00000001FF
