:030000000204A651
:0C04A600787FE4F6D8FD75814C0204ED6F
:070C1100014C004100350019
:1005B5005394FE7FAA1200277FAA120027E4FD7F2D
:1005C500011208DB53BCEF75081ED2EA120AE112CC
:1005D5000B98D2BAD2AFE509B401FB900035E0041F
:1005E500F0E0547FFFE50D64015401FE75F01FA492
:1005F500242CF8A607EE75F01FA4240EF9E4FAFBE7
:0B0605007D1F120CD09000347401F037
:1006100090000C7414F0D2E890000CE0FF14F0EF9E
:0406200070F6C2E8C6
:0C062400900034E070FA00E4F50980ABAF
:100B98005393FBE4F5CA75CBFF75C102C2CFD2CC23
:090BA800C2CBD2C8C2C9D2AD22F1
:03002B00020D368D
:060D3600638004C2C63216
:0300530002063072
:10063000C0E0C0F0C083C082C085C084C092539225
:0C064000FEC0D075D000C001C002C00395
:10064C00900016E4F0E5BEF0E5BFF0E0AB0AAA0BB3
:10065C00A90C1208B37401250CF50CE4350BF50B41
:10066C00D5081C75081E530D01630D01E50D75F0C1
:10067C001FA4240EF9E4F50AF50B890C7509010089
:10068C00D003D002D001D0D0D092D084D085D082EB
:07069C00D083D0F0D0E03262
:100AE100D2EAD2B97F01120A587F011209CA7F01E5
:100AF1001209987F01120C307F7D120BDC7DFA7C8C
:0B0B0100007F14120B36E4FF020A2AEA
:03004B000206A307
:1006A300C0E0C0F0C083C082C085C084C0925392B2
:1006B300FEC0D075D000C000C001C002C003C0049A
:0606C300C005C006C007DF
:1006C900120C65EF24F0601224F0600C24C0701243
:1006D900120CA8EF60FA80058003120D0290003415
:0206E900E4F03B
:1006EB00D007D006D005D004D003D002D001D00063
:1006FB00D0D0D092D084D085D082D083D0F0D0E02F
:01070B0032BB
:080C18004100370041003601E4
:10076800E4F5FCEF14600F146011146013146015A5
:1007780024047016801743FC10801243FC20800D5F
:1007880043FC30800843FC40800343FC50ED146078
:100798000A14600C14600E2403800D43FC028008C8
:1007A80043FC04800343FC06EB700343FC0843FC52
:0207B80001221C
:0A0C94008FFFE5FE30E2FBAFFF2208
:1008DB0075BCF0D2CE43A601EF14600A14600C1461
:1008EB00600E2403800D43BC02800843BC048003CC
:1008FB0043BC06ED5401F433333354F842BC43BCD0
:0E090B0001E5BE30E00890000DE5BFF080F37E
:0109190022BB
:070D2800120027120BB1229B
:100B0C00900037E045BEF0E0FF30E5089000367409
:100B1C0001F08009EF30E405E4900036F0EF54CF9B
:090B2C00900037F0900036E0FF64
:010B3500229D
:100BEF00900037E045BEF0E030E0037F01227F0048
:010BFF0022D3
:100BB100900037E020E00545BEF080F4900037E07A
:060BC10054FEF0AFBF225C
:030027008FBF2266
:050A2A0090000DEFF04B
:100A2F00E4FF12003290000EEFF090000DE0B401E1
:100A3F0007A3E04401F0800790000EE054FEF09011
:090A4F00000EE0FDE4FF020B784B
:050A580090000DEFF01D
:100A5D00E4FF12003290000EEFF090000DE0B401B3
:100A6D0007A3E04402F0800790000EE054FDF090E3
:090A7D00000EE0FDE4FF020B781D
:05080A00900038EFF042
:10080F00E4FF120032900039EFF0900038E01460EE
:10081F001014601A24027021900039E054F7F08010
:10082F0018900039E04408F0E054FBF0800B900082
:10083F0039E04408F0E04404F0900039E0FDE4FFB3
:03084F00020B7821
:0805320090002EEFF0A3EDF0A4
:10053A00E4FF120032900030EFF090002EE024FB2E
:10054A00602414603F2402705890002FE060047FFA
:10055A000080027F01EF5401C454F0FF900030E0A4
:10056A0054EF4FF0803B90002FE060047F00800240
:10057A007F01EF5401C43354E0FF900030E054DFB0
:10058A004FF0801D90002FE060047F0080027F0101
:10059A00EF5401C4333354C0FF900030E054BF4FCE
:0B05AA00F0900030E0FDE4FF020B7851
:0B0C65007D707F07120B78EF5470FFCA
:010C70002261
:100003007D707F07120B78EF5470900044F0E0FF8F
:10001300C0077F07120032EF540FFED0E04EFF906F
:030023000044F0A6
:0100260022B7
:100C00007401A807088002C333D8FCFD7F07020BDC
:010C1000786B
:080D2000120D0CEF5470FF22CC
:08041400900022EFF0A3EDF0CF
:10041C007F02120032900024EFF07F011200329024
:10042C000025EFF0900022E0FF24FA50062407602C
:10043C003C80537401A807088002C333D8FCFD909C
:10044C000024E04DF0900023E06008900025E04D82
:10045C00F08033900022E0FF7401A807088002C3EB
:10046C0033D8FCF4FF900025E05FF0801990002455
:10047C00743FF0900023E06008900025743FF080FA
:10048C0005E4900025F0900024E0FD7F02120B782B
:0A049C00900025E0FD7F01020B78BF
:05070C00900031EFF048
:100711007F02120032900032EFF07F01120032901E
:100721000033EFF0900031E0FF24FA500624076017
:100731001B80207401A807088002C333D8FCF4FD94
:10074100900032E05DF0A3E05DF08007E4900032BC
:10075100F0A3F0900032E0FD7F02120B789000339D
:07076100E0FD7F01020B78AF
:1007BA00900027EBF0A3EAF0A3E9F0900026EFF00F
:1007CA0014600A24FB5021600424067032120C9E25
:1007DA00900011EFF0900026E0242AFFA3E0FBA38B
:1007EA00E0FAA3E0F902024D900026E0240AFFA3F2
:1007FA00E0FBA3E0FAA3E0F912089AFD120B7822B3
:1008520090002BEBF0A3EAF0A3E9F090002AEFF06E
:1008620014600824FB60042406701190002AE0FF43
:10087200A3E0FBA3E0FAA3E0F902005690002AE00D
:10088200240AFF12003290002BE0FBA3E0FAA3E05F
:08089200F9EF1208B37F012207
:020B3600AB070B
:100B3800EC540FC454F0FF90000DE0540F4FF0EB4D
:0F0B4800540FFFE054F04FF0E0FD7F04020B78F4
:100BC700EF24FE5403FF900045E054FC4FF0E0FD96
:050BD7007F03020B7812
:0A0C9E007F03120032EF2402FF2250
:070D2F00EF2411FF020B7815
:05035500900018EFF01C
:10035A007F02120032900019EFF07F0112003290F2
:10036A00001AEFF0900018E0146020146031146055
:10037A00421460551460642405707A900019E054A0
:10038A000190001BF090001AE08062900019E0C30F
:10039A0013540190001BF090001AE0C313804E9092
:1003AA000019E01313540190001BF090001AE01397
:1003BA0013803A900019E0131313540190001BF0B4
:1003CA0090001AE01313138024900019E0C454011A
:1003DA0090001BF090001AE0C48012900019E0C44B
:1003EA0013540190001BF090001AE0C413540190BA
:1003FA00001CF08007E490001BF0A3F090001CE0C2
:09040A0025E0FF90001BE02FFF2C
:0104130022C6
:060D3C007F0812003222C4
:0D0C3E007F08120032EF54F0C4540FFF2263
:10091A00EF1460141460151460161460171460182C
:10092A00240570207F1180127F12800E7F13800AA7
:10093A007F1480067F1580027F16120032900046CF
:0E094A00EFF08005E4900046F0900046E0FFDC
:01095800227C
:100BDC00EF547FFF90000DE054804FF0E0FD7F0557
:030BEC00020B7881
:030B570090003AD1
:100B5A0012002E90003BEFF090003AE0540325E09B
:0E0B6A00FFA3E054F94FF0E0FD7F06020B7888
:0309590090003CCF
:10095C0012002E90003DEFF090003CE0600C24FE65
:10096C00701590003DE04420800690003DE054DF7F
:10097C00F0E054F7F0800B90003DE054DFF0E044E1
:0C098C0008F090003DE0FD7F06020B78B3
:0A0CA8007F17120032EF5401FF2203
:0C0C71007F17120032EFC3135401FF2262
:0B0C89007F17120032EFC45401FF225D
:0C0C7D007F17120032EFC4135401FF2255
:0D0C4B007F17120032EF5430C4540FFF2207
:0A0CB2007F17120032EF5403FF22F7
:060D42007F1712003222AF
:0A0CBC007F08120032EF540FFF22F0
:0A0CC6007F09120032EF5401FF22F3
:01002A0022B3
:0E0C3000EF543F90000DF0E0FD7F1C020B78AA
:0509980090000DEFF0DE
:10099D007F1D12003290000EEFF090000DE060040C
:1009AD007F0180027F00EF540125E025E0FF9000DC
:0D09BD000EE054FB4FF0E0FD7F1D020B78B3
:0509CA0090000DEFF0AC
:1009CF007F1D12003290000EEFF090000DE06004DA
:1009DF007F0180027F00EF540125E0FF90000EE0C1
:0B09EF0054FD4FF0E0FD7F1D020B786F
:050A860090003EEFF0BE
:100A8B007F1D12003290003FEFF090003EE06004BB
:100A9B007F0180027F00EF5401FF90003FE054FE86
:090AAB004FF0E0FD7F1D020B7805
:0A0CD000900011EDF07FA002024D2C
:0A0CDA00900011EDF07FB002024D12
:0F0C2100EF44A8FF900021E0900011F002024D77
:060D48007F601200322260
:060D4E007F08120056228E
:0A0CE400120D0CEF540EC313FF2293
:0A0CEE00C2E97FE3120D16D2E922DD
:0D0C5800120D42EF5440C413135403FF2249
:0A0CF800C2E97FE2120D16D2E922D4
:0A0D0200C2E97FE1120D16D2E922CA
:090D0C00C2E97FFF120D16D2E9C5
:010D150022BB
:030AB4009000406F
:100AB70012002E900041EFF0900040E060047F01AB
:100AC70080027F00EF5401C454F0FF900041E054CE
:0A0AD700EF4FF0E0FD7F06020B7800
:0309FA0090004228
:1009FD0012002E900043EFF0900042E060047F0162
:100A0D0080027F00EF5401C43333335480FF9000D4
:0D0A1D0043E0547F4FF0E0FD7F06020B78B0
:04002E00EFF07F066A
:10003200C2E98FE7E5E630E1FBAFE7E4F5E7E5E6A5
:0700420030E1FBAFE7D2E95A
:010049002294
:100B7800C2E9EF2420F5E7E5E630E1FBAFE7AE0593
:0F0B88008EE7E5E630E1FB900017E5E7F0D2E9F4
:010B9700223B
:10005600900001EBF0A3EAF0A3E9F0900000EFF0C6
:100066009000087401F0900001E0900006F0EF1493
:10007600600C24FB600824FE601924087035120CFD
:100086009E900004EFF0A3F0C2E9900000E0240A7D
:10009600FF801B120CE4900000EFF0C3940750138E
:1000A600120D48900004EFF0A3F0C2E97F61120D33
:1000B600168009E4900005F0900004F0900006E038
:0300C600FF704B7D
:1000C900900001A3A3E0900009F0E4F5E79000088F
:1000D900E07011900007E0FE900009E0F8A606E044
:1000E90004F08005E4900008F0E5E630E1FB9000BB
:1000F90007E5E7F0900004E014F070CE900007E007
:08010900FE900009E0F8A606D3
:0801110002023EEF6401706977
:10011900900001A3E0FAA3E0FF900009EAF0A3EF41
:10012900F0E4F5E7900008E07022900007E0FF9006
:100139000009E0FCA3E0F5828C83EFF090000AE06F
:1001490004F0700D900009E004F08005E4900008C7
:10015900F0E5E630E1FB900007E5E7F0900004E008
:1001690014F070BD900007E0FF900009E0FCA3E0E7
:06017900F5828C83EFF01B
:0B017F0002023E900006E064FE704AA1
:10018A00900001A3A3E0900009F0E4F5E7900008CD
:10019A00E07011900007E0FF900009E0F8EFF2E04C
:1001AA0004F08005E4900008F0E5E630E1FB9000F9
:1001BA0007E5E7F0900004E014F070CE900007E045
:0801CA00FF900009E0F8EFF2DC
:0201D200806A41
:1001D400900001E0F9A3E0FAA3E0900009C9F0A3BC
:1001E400EAF0A3E9F0E4F5E7900008E0702090005D
:1001F40007E0FF900009E0FBA3E0FAA3E0F9EF12A7
:1002040008B390000AE475F0011208C58005E49073
:100214000008F0E5E630E1FB900007E5E7F0900028
:1002240004E014F070BF900007E0FF900009E0FBC9
:0A023400A3E0FAA3E0F9EF1208B30B
:0E023E00D2E9900000E0FE900005E0FDEDFF2B
:01024C00228F
:0B024D0090000EEBF0A3EAF0A3E9F034
:0C02580090000EE0FDC2E98FE7ED702978
:10026400A3A3E0900013F0900013E0F8E6FEE0048E
:10027400F0E5E630E1FB900012E5E7F08EE7900050
:0602840011E014F070E12E
:08028A00020347ED640170421C
:1002920090000EA3E0FBA3E0900013CBF0A3EBF0E1
:1002A200900013E0FEA3E0F5828E83E0FE9000143E
:1002B200E004F07006900013E004F0E5E630E1FBA4
:1002C200900012E5E7F08EE7900011E014F070D094
:0702D2008073ED64FE702B48
:1002D90090000EA3A3E0900013F0900013E0F8E261
:1002E900FEE004F0E5E630E1FB900012E5E7F08E70
:0902F900E7900011E014F070E13F
:02030200804336
:1003040090000EE0F9A3E0FAA3E0900013C9F0A373
:10031400EAF0A3E9F0900013E0FBA3E0FAA3E0F90C
:1003240012089AFE900014E475F0011208C5E5E67F
:1003340030E1FB900012E5E7F08EE7900011E01445
:03034400F070D284
:0D034700E5E630E1FB900012E5E7F0D2E9B9
:010354002286
:0A0D16008FE7E5E630E1FBAFE722CE
:1004B2000205B5E493A3F8E493A34003F68001F2A6
:1004C20008DFF48029E493A3F85407240CC8C3334B
:1004D200C4540F4420C8834004F456800146F6DF1A
:1004E200E4800B0102040810204080900C11E47E8D
:1004F200019360BCA3FF543F30E509541FFEE4930F
:10050200A360010ECF54C025E060A840B8E493A3D5
:10051200FAE493A3F8E493A3C8C582C8CAC583CA00
:10052200F0A3C8C582C8CAC583CADFE9DEE780BEB8
:010C200000D3
:10089A00BB010689828A83E0225002E722BBFE025C
:0908AA00E32289828A83E493228F
:1008B300BB010689828A83F0225002F722BBFE0124
:0208C300F3221E
:1008C500C5F0F8A3E028F0C5F0F8E58215827002BE
:0608D5001583E038F0225B
:00000001FF
